{
  "contractName": "ERC1400",
  "abi": [
    {
      "constant": true,
      "inputs": [],
      "name": "name",
      "outputs": [
        {
          "name": "",
          "type": "string"
        }
      ],
      "payable": false,
      "stateMutability": "view",
      "type": "function"
    },
    {
      "constant": false,
      "inputs": [
        {
          "name": "partition",
          "type": "bytes32"
        },
        {
          "name": "operator",
          "type": "address"
        }
      ],
      "name": "authorizeOperatorByPartition",
      "outputs": [],
      "payable": false,
      "stateMutability": "nonpayable",
      "type": "function"
    },
    {
      "constant": false,
      "inputs": [
        {
          "name": "partition",
          "type": "bytes32"
        },
        {
          "name": "operator",
          "type": "address"
        }
      ],
      "name": "revokeOperatorByPartition",
      "outputs": [],
      "payable": false,
      "stateMutability": "nonpayable",
      "type": "function"
    },
    {
      "constant": true,
      "inputs": [],
      "name": "totalSupply",
      "outputs": [
        {
          "name": "",
          "type": "uint256"
        }
      ],
      "payable": false,
      "stateMutability": "view",
      "type": "function"
    },
    {
      "constant": false,
      "inputs": [
        {
          "name": "to",
          "type": "address"
        },
        {
          "name": "value",
          "type": "uint256"
        },
        {
          "name": "data",
          "type": "bytes"
        }
      ],
      "name": "transferWithData",
      "outputs": [],
      "payable": false,
      "stateMutability": "nonpayable",
      "type": "function"
    },
    {
      "constant": true,
      "inputs": [
        {
          "name": "partition",
          "type": "bytes32"
        },
        {
          "name": "tokenHolder",
          "type": "address"
        }
      ],
      "name": "balanceOfByPartition",
      "outputs": [
        {
          "name": "",
          "type": "uint256"
        }
      ],
      "payable": false,
      "stateMutability": "view",
      "type": "function"
    },
    {
      "constant": true,
      "inputs": [],
      "name": "granularity",
      "outputs": [
        {
          "name": "",
          "type": "uint256"
        }
      ],
      "payable": false,
      "stateMutability": "view",
      "type": "function"
    },
    {
      "constant": true,
      "inputs": [
        {
          "name": "sender",
          "type": "address"
        }
      ],
      "name": "checkCount",
      "outputs": [
        {
          "name": "",
          "type": "uint256"
        }
      ],
      "payable": false,
      "stateMutability": "view",
      "type": "function"
    },
    {
      "constant": true,
      "inputs": [],
      "name": "totalPartitions",
      "outputs": [
        {
          "name": "",
          "type": "bytes32[]"
        }
      ],
      "payable": false,
      "stateMutability": "view",
      "type": "function"
    },
    {
      "constant": true,
      "inputs": [
        {
          "name": "partition",
          "type": "bytes32"
        },
        {
          "name": "operator",
          "type": "address"
        },
        {
          "name": "tokenHolder",
          "type": "address"
        }
      ],
      "name": "isOperatorForPartition",
      "outputs": [
        {
          "name": "",
          "type": "bool"
        }
      ],
      "payable": false,
      "stateMutability": "view",
      "type": "function"
    },
    {
      "constant": true,
      "inputs": [
        {
          "name": "tokenHolder",
          "type": "address"
        }
      ],
      "name": "balanceOf",
      "outputs": [
        {
          "name": "",
          "type": "uint256"
        }
      ],
      "payable": false,
      "stateMutability": "view",
      "type": "function"
    },
    {
      "constant": false,
      "inputs": [],
      "name": "renounceOwnership",
      "outputs": [],
      "payable": false,
      "stateMutability": "nonpayable",
      "type": "function"
    },
    {
      "constant": true,
      "inputs": [
        {
          "name": "operator",
          "type": "address"
        }
      ],
      "name": "certificateSigners",
      "outputs": [
        {
          "name": "",
          "type": "bool"
        }
      ],
      "payable": false,
      "stateMutability": "view",
      "type": "function"
    },
    {
      "constant": true,
      "inputs": [
        {
          "name": "tokenHolder",
          "type": "address"
        }
      ],
      "name": "partitionsOf",
      "outputs": [
        {
          "name": "",
          "type": "bytes32[]"
        }
      ],
      "payable": false,
      "stateMutability": "view",
      "type": "function"
    },
    {
      "constant": true,
      "inputs": [],
      "name": "controllers",
      "outputs": [
        {
          "name": "",
          "type": "address[]"
        }
      ],
      "payable": false,
      "stateMutability": "view",
      "type": "function"
    },
    {
      "constant": true,
      "inputs": [
        {
          "name": "partition",
          "type": "bytes32"
        }
      ],
      "name": "controllersByPartition",
      "outputs": [
        {
          "name": "",
          "type": "address[]"
        }
      ],
      "payable": false,
      "stateMutability": "view",
      "type": "function"
    },
    {
      "constant": false,
      "inputs": [
        {
          "name": "from",
          "type": "address"
        },
        {
          "name": "to",
          "type": "address"
        },
        {
          "name": "value",
          "type": "uint256"
        },
        {
          "name": "data",
          "type": "bytes"
        },
        {
          "name": "operatorData",
          "type": "bytes"
        }
      ],
      "name": "transferFromWithData",
      "outputs": [],
      "payable": false,
      "stateMutability": "nonpayable",
      "type": "function"
    },
    {
      "constant": false,
      "inputs": [
        {
          "name": "partition",
          "type": "bytes32"
        },
        {
          "name": "from",
          "type": "address"
        },
        {
          "name": "to",
          "type": "address"
        },
        {
          "name": "value",
          "type": "uint256"
        },
        {
          "name": "data",
          "type": "bytes"
        },
        {
          "name": "operatorData",
          "type": "bytes"
        }
      ],
      "name": "operatorTransferByPartition",
      "outputs": [
        {
          "name": "",
          "type": "bytes32"
        }
      ],
      "payable": false,
      "stateMutability": "nonpayable",
      "type": "function"
    },
    {
      "constant": true,
      "inputs": [],
      "name": "owner",
      "outputs": [
        {
          "name": "",
          "type": "address"
        }
      ],
      "payable": false,
      "stateMutability": "view",
      "type": "function"
    },
    {
      "constant": true,
      "inputs": [],
      "name": "isOwner",
      "outputs": [
        {
          "name": "",
          "type": "bool"
        }
      ],
      "payable": false,
      "stateMutability": "view",
      "type": "function"
    },
    {
      "constant": false,
      "inputs": [
        {
          "name": "operator",
          "type": "address"
        }
      ],
      "name": "authorizeOperator",
      "outputs": [],
      "payable": false,
      "stateMutability": "nonpayable",
      "type": "function"
    },
    {
      "constant": true,
      "inputs": [],
      "name": "symbol",
      "outputs": [
        {
          "name": "",
          "type": "string"
        }
      ],
      "payable": false,
      "stateMutability": "view",
      "type": "function"
    },
    {
      "constant": false,
      "inputs": [
        {
          "name": "account",
          "type": "address"
        }
      ],
      "name": "addMinter",
      "outputs": [],
      "payable": false,
      "stateMutability": "nonpayable",
      "type": "function"
    },
    {
      "constant": false,
      "inputs": [],
      "name": "renounceMinter",
      "outputs": [],
      "payable": false,
      "stateMutability": "nonpayable",
      "type": "function"
    },
    {
      "constant": true,
      "inputs": [
        {
          "name": "account",
          "type": "address"
        }
      ],
      "name": "isMinter",
      "outputs": [
        {
          "name": "",
          "type": "bool"
        }
      ],
      "payable": false,
      "stateMutability": "view",
      "type": "function"
    },
    {
      "constant": true,
      "inputs": [
        {
          "name": "tokenHolder",
          "type": "address"
        }
      ],
      "name": "getDefaultPartitions",
      "outputs": [
        {
          "name": "",
          "type": "bytes32[]"
        }
      ],
      "payable": false,
      "stateMutability": "view",
      "type": "function"
    },
    {
      "constant": true,
      "inputs": [
        {
          "name": "operator",
          "type": "address"
        },
        {
          "name": "tokenHolder",
          "type": "address"
        }
      ],
      "name": "isOperatorFor",
      "outputs": [
        {
          "name": "",
          "type": "bool"
        }
      ],
      "payable": false,
      "stateMutability": "view",
      "type": "function"
    },
    {
      "constant": false,
      "inputs": [
        {
          "name": "partitions",
          "type": "bytes32[]"
        }
      ],
      "name": "setDefaultPartitions",
      "outputs": [],
      "payable": false,
      "stateMutability": "nonpayable",
      "type": "function"
    },
    {
      "constant": false,
      "inputs": [
        {
          "name": "newOwner",
          "type": "address"
        }
      ],
      "name": "transferOwnership",
      "outputs": [],
      "payable": false,
      "stateMutability": "nonpayable",
      "type": "function"
    },
    {
      "constant": false,
      "inputs": [
        {
          "name": "partition",
          "type": "bytes32"
        },
        {
          "name": "to",
          "type": "address"
        },
        {
          "name": "value",
          "type": "uint256"
        },
        {
          "name": "data",
          "type": "bytes"
        }
      ],
      "name": "transferByPartition",
      "outputs": [
        {
          "name": "",
          "type": "bytes32"
        }
      ],
      "payable": false,
      "stateMutability": "nonpayable",
      "type": "function"
    },
    {
      "constant": false,
      "inputs": [
        {
          "name": "operator",
          "type": "address"
        }
      ],
      "name": "revokeOperator",
      "outputs": [],
      "payable": false,
      "stateMutability": "nonpayable",
      "type": "function"
    },
    {
      "inputs": [
        {
          "name": "name",
          "type": "string"
        },
        {
          "name": "symbol",
          "type": "string"
        },
        {
          "name": "granularity",
          "type": "uint256"
        },
        {
          "name": "controllers",
          "type": "address[]"
        },
        {
          "name": "certificateSigner",
          "type": "address"
        },
        {
          "name": "tokenDefaultPartitions",
          "type": "bytes32[]"
        }
      ],
      "payable": false,
      "stateMutability": "nonpayable",
      "type": "constructor"
    },
    {
      "anonymous": false,
      "inputs": [
        {
          "indexed": true,
          "name": "account",
          "type": "address"
        }
      ],
      "name": "MinterAdded",
      "type": "event"
    },
    {
      "anonymous": false,
      "inputs": [
        {
          "indexed": true,
          "name": "account",
          "type": "address"
        }
      ],
      "name": "MinterRemoved",
      "type": "event"
    },
    {
      "anonymous": false,
      "inputs": [
        {
          "indexed": false,
          "name": "sender",
          "type": "address"
        }
      ],
      "name": "Checked",
      "type": "event"
    },
    {
      "anonymous": false,
      "inputs": [
        {
          "indexed": true,
          "name": "previousOwner",
          "type": "address"
        },
        {
          "indexed": true,
          "name": "newOwner",
          "type": "address"
        }
      ],
      "name": "OwnershipTransferred",
      "type": "event"
    },
    {
      "anonymous": false,
      "inputs": [
        {
          "indexed": true,
          "name": "operator",
          "type": "address"
        },
        {
          "indexed": true,
          "name": "from",
          "type": "address"
        },
        {
          "indexed": true,
          "name": "to",
          "type": "address"
        },
        {
          "indexed": false,
          "name": "value",
          "type": "uint256"
        },
        {
          "indexed": false,
          "name": "data",
          "type": "bytes"
        },
        {
          "indexed": false,
          "name": "operatorData",
          "type": "bytes"
        }
      ],
      "name": "TransferWithData",
      "type": "event"
    },
    {
      "anonymous": false,
      "inputs": [
        {
          "indexed": true,
          "name": "operator",
          "type": "address"
        },
        {
          "indexed": true,
          "name": "to",
          "type": "address"
        },
        {
          "indexed": false,
          "name": "value",
          "type": "uint256"
        },
        {
          "indexed": false,
          "name": "data",
          "type": "bytes"
        },
        {
          "indexed": false,
          "name": "operatorData",
          "type": "bytes"
        }
      ],
      "name": "Issued",
      "type": "event"
    },
    {
      "anonymous": false,
      "inputs": [
        {
          "indexed": true,
          "name": "operator",
          "type": "address"
        },
        {
          "indexed": true,
          "name": "from",
          "type": "address"
        },
        {
          "indexed": false,
          "name": "value",
          "type": "uint256"
        },
        {
          "indexed": false,
          "name": "data",
          "type": "bytes"
        },
        {
          "indexed": false,
          "name": "operatorData",
          "type": "bytes"
        }
      ],
      "name": "Redeemed",
      "type": "event"
    },
    {
      "anonymous": false,
      "inputs": [
        {
          "indexed": true,
          "name": "operator",
          "type": "address"
        },
        {
          "indexed": true,
          "name": "tokenHolder",
          "type": "address"
        }
      ],
      "name": "AuthorizedOperator",
      "type": "event"
    },
    {
      "anonymous": false,
      "inputs": [
        {
          "indexed": true,
          "name": "operator",
          "type": "address"
        },
        {
          "indexed": true,
          "name": "tokenHolder",
          "type": "address"
        }
      ],
      "name": "RevokedOperator",
      "type": "event"
    },
    {
      "anonymous": false,
      "inputs": [
        {
          "indexed": true,
          "name": "fromPartition",
          "type": "bytes32"
        },
        {
          "indexed": false,
          "name": "operator",
          "type": "address"
        },
        {
          "indexed": true,
          "name": "from",
          "type": "address"
        },
        {
          "indexed": true,
          "name": "to",
          "type": "address"
        },
        {
          "indexed": false,
          "name": "value",
          "type": "uint256"
        },
        {
          "indexed": false,
          "name": "data",
          "type": "bytes"
        },
        {
          "indexed": false,
          "name": "operatorData",
          "type": "bytes"
        }
      ],
      "name": "TransferByPartition",
      "type": "event"
    },
    {
      "anonymous": false,
      "inputs": [
        {
          "indexed": true,
          "name": "fromPartition",
          "type": "bytes32"
        },
        {
          "indexed": true,
          "name": "toPartition",
          "type": "bytes32"
        },
        {
          "indexed": false,
          "name": "value",
          "type": "uint256"
        }
      ],
      "name": "ChangedPartition",
      "type": "event"
    },
    {
      "anonymous": false,
      "inputs": [
        {
          "indexed": true,
          "name": "partition",
          "type": "bytes32"
        },
        {
          "indexed": true,
          "name": "operator",
          "type": "address"
        },
        {
          "indexed": true,
          "name": "tokenHolder",
          "type": "address"
        }
      ],
      "name": "AuthorizedOperatorByPartition",
      "type": "event"
    },
    {
      "anonymous": false,
      "inputs": [
        {
          "indexed": true,
          "name": "partition",
          "type": "bytes32"
        },
        {
          "indexed": true,
          "name": "operator",
          "type": "address"
        },
        {
          "indexed": true,
          "name": "tokenHolder",
          "type": "address"
        }
      ],
      "name": "RevokedOperatorByPartition",
      "type": "event"
    },
    {
      "anonymous": false,
      "inputs": [
        {
          "indexed": true,
          "name": "name",
          "type": "bytes32"
        },
        {
          "indexed": false,
          "name": "uri",
          "type": "string"
        },
        {
          "indexed": false,
          "name": "documentHash",
          "type": "bytes32"
        }
      ],
      "name": "Document",
      "type": "event"
    },
    {
      "anonymous": false,
      "inputs": [
        {
          "indexed": true,
          "name": "partition",
          "type": "bytes32"
        },
        {
          "indexed": true,
          "name": "operator",
          "type": "address"
        },
        {
          "indexed": true,
          "name": "to",
          "type": "address"
        },
        {
          "indexed": false,
          "name": "value",
          "type": "uint256"
        },
        {
          "indexed": false,
          "name": "data",
          "type": "bytes"
        },
        {
          "indexed": false,
          "name": "operatorData",
          "type": "bytes"
        }
      ],
      "name": "IssuedByPartition",
      "type": "event"
    },
    {
      "anonymous": false,
      "inputs": [
        {
          "indexed": true,
          "name": "partition",
          "type": "bytes32"
        },
        {
          "indexed": true,
          "name": "operator",
          "type": "address"
        },
        {
          "indexed": true,
          "name": "from",
          "type": "address"
        },
        {
          "indexed": false,
          "name": "value",
          "type": "uint256"
        },
        {
          "indexed": false,
          "name": "data",
          "type": "bytes"
        },
        {
          "indexed": false,
          "name": "operatorData",
          "type": "bytes"
        }
      ],
      "name": "RedeemedByPartition",
      "type": "event"
    },
    {
      "constant": true,
      "inputs": [
        {
          "name": "name",
          "type": "bytes32"
        }
      ],
      "name": "getDocument",
      "outputs": [
        {
          "name": "",
          "type": "string"
        },
        {
          "name": "",
          "type": "bytes32"
        }
      ],
      "payable": false,
      "stateMutability": "view",
      "type": "function"
    },
    {
      "constant": false,
      "inputs": [
        {
          "name": "name",
          "type": "bytes32"
        },
        {
          "name": "uri",
          "type": "string"
        },
        {
          "name": "documentHash",
          "type": "bytes32"
        }
      ],
      "name": "setDocument",
      "outputs": [],
      "payable": false,
      "stateMutability": "nonpayable",
      "type": "function"
    },
    {
      "constant": true,
      "inputs": [],
      "name": "isControllable",
      "outputs": [
        {
          "name": "",
          "type": "bool"
        }
      ],
      "payable": false,
      "stateMutability": "view",
      "type": "function"
    },
    {
      "constant": true,
      "inputs": [],
      "name": "isIssuable",
      "outputs": [
        {
          "name": "",
          "type": "bool"
        }
      ],
      "payable": false,
      "stateMutability": "view",
      "type": "function"
    },
    {
      "constant": false,
      "inputs": [
        {
          "name": "partition",
          "type": "bytes32"
        },
        {
          "name": "tokenHolder",
          "type": "address"
        },
        {
          "name": "value",
          "type": "uint256"
        },
        {
          "name": "data",
          "type": "bytes"
        }
      ],
      "name": "issueByPartition",
      "outputs": [],
      "payable": false,
      "stateMutability": "nonpayable",
      "type": "function"
    },
    {
      "constant": false,
      "inputs": [
        {
          "name": "partition",
          "type": "bytes32"
        },
        {
          "name": "value",
          "type": "uint256"
        },
        {
          "name": "data",
          "type": "bytes"
        }
      ],
      "name": "redeemByPartition",
      "outputs": [],
      "payable": false,
      "stateMutability": "nonpayable",
      "type": "function"
    },
    {
      "constant": false,
      "inputs": [
        {
          "name": "partition",
          "type": "bytes32"
        },
        {
          "name": "tokenHolder",
          "type": "address"
        },
        {
          "name": "value",
          "type": "uint256"
        },
        {
          "name": "data",
          "type": "bytes"
        },
        {
          "name": "operatorData",
          "type": "bytes"
        }
      ],
      "name": "operatorRedeemByPartition",
      "outputs": [],
      "payable": false,
      "stateMutability": "nonpayable",
      "type": "function"
    },
    {
      "constant": true,
      "inputs": [
        {
          "name": "partition",
          "type": "bytes32"
        },
        {
          "name": "to",
          "type": "address"
        },
        {
          "name": "value",
          "type": "uint256"
        },
        {
          "name": "data",
          "type": "bytes"
        }
      ],
      "name": "canTransferByPartition",
      "outputs": [
        {
          "name": "",
          "type": "bytes1"
        },
        {
          "name": "",
          "type": "bytes32"
        },
        {
          "name": "",
          "type": "bytes32"
        }
      ],
      "payable": false,
      "stateMutability": "view",
      "type": "function"
    },
    {
      "constant": true,
      "inputs": [
        {
          "name": "partition",
          "type": "bytes32"
        },
        {
          "name": "from",
          "type": "address"
        },
        {
          "name": "to",
          "type": "address"
        },
        {
          "name": "value",
          "type": "uint256"
        },
        {
          "name": "data",
          "type": "bytes"
        },
        {
          "name": "operatorData",
          "type": "bytes"
        }
      ],
      "name": "canOperatorTransferByPartition",
      "outputs": [
        {
          "name": "",
          "type": "bytes1"
        },
        {
          "name": "",
          "type": "bytes32"
        },
        {
          "name": "",
          "type": "bytes32"
        }
      ],
      "payable": false,
      "stateMutability": "view",
      "type": "function"
    },
    {
      "constant": false,
      "inputs": [],
      "name": "renounceControl",
      "outputs": [],
      "payable": false,
      "stateMutability": "nonpayable",
      "type": "function"
    },
    {
      "constant": false,
      "inputs": [],
      "name": "renounceIssuance",
      "outputs": [],
      "payable": false,
      "stateMutability": "nonpayable",
      "type": "function"
    },
    {
      "constant": false,
      "inputs": [
        {
          "name": "operators",
          "type": "address[]"
        }
      ],
      "name": "setControllers",
      "outputs": [],
      "payable": false,
      "stateMutability": "nonpayable",
      "type": "function"
    },
    {
      "constant": false,
      "inputs": [
        {
          "name": "partition",
          "type": "bytes32"
        },
        {
          "name": "operators",
          "type": "address[]"
        }
      ],
      "name": "setPartitionControllers",
      "outputs": [],
      "payable": false,
      "stateMutability": "nonpayable",
      "type": "function"
    },
    {
      "constant": false,
      "inputs": [
        {
          "name": "operator",
          "type": "address"
        },
        {
          "name": "authorized",
          "type": "bool"
        }
      ],
      "name": "setCertificateSigner",
      "outputs": [],
      "payable": false,
      "stateMutability": "nonpayable",
      "type": "function"
    },
    {
      "constant": true,
      "inputs": [],
      "name": "getTokenDefaultPartitions",
      "outputs": [
        {
          "name": "",
          "type": "bytes32[]"
        }
      ],
      "payable": false,
      "stateMutability": "view",
      "type": "function"
    },
    {
      "constant": false,
      "inputs": [
        {
          "name": "defaultPartitions",
          "type": "bytes32[]"
        }
      ],
      "name": "setTokenDefaultPartitions",
      "outputs": [],
      "payable": false,
      "stateMutability": "nonpayable",
      "type": "function"
    },
    {
      "constant": false,
      "inputs": [
        {
          "name": "value",
          "type": "uint256"
        },
        {
          "name": "data",
          "type": "bytes"
        }
      ],
      "name": "redeem",
      "outputs": [],
      "payable": false,
      "stateMutability": "nonpayable",
      "type": "function"
    },
    {
      "constant": false,
      "inputs": [
        {
          "name": "from",
          "type": "address"
        },
        {
          "name": "value",
          "type": "uint256"
        },
        {
          "name": "data",
          "type": "bytes"
        },
        {
          "name": "operatorData",
          "type": "bytes"
        }
      ],
      "name": "redeemFrom",
      "outputs": [],
      "payable": false,
      "stateMutability": "nonpayable",
      "type": "function"
    }
  ],
  "bytecode": "0x60806040523480156200001157600080fd5b506040516200614338038062006143833981018060405260c08110156200003757600080fd5b8101908080516401000000008111156200005057600080fd5b820160208101848111156200006457600080fd5b81516401000000008111828201871017156200007f57600080fd5b505092919060200180516401000000008111156200009c57600080fd5b82016020810184811115620000b057600080fd5b8151640100000000811182820187101715620000cb57600080fd5b50506020820151604090920180519194929391640100000000811115620000f157600080fd5b820160208101848111156200010557600080fd5b81518560208202830111640100000000821117156200012357600080fd5b505060208201516040909201805191949293916401000000008111156200014957600080fd5b820160208101848111156200015d57600080fd5b81518560208202830111640100000000821117156200017b57600080fd5b505060008054600160a060020a03191633178082556040519295508a945089935088928892889288928892889288928892889283928392600160a060020a039290921691907f8be0079c531659141344cd1fd0a4f28419497f9722a3daafe3b4186f6b6457e0908290a3620001fb816001640100000000620003da810204565b5050600160035584516200021790600490602088019062000770565b5083516200022d90600590602087019062000770565b5060006007556001831015620002ca57604080517f08c379a000000000000000000000000000000000000000000000000000000000815260206004820152603f60248201527f436f6e7374727563746f7220426c6f636b6564202d20546f6b656e206772616e60448201527f756c61726974792063616e206e6f74206265206c6f776572207468616e203100606482015290519081900360840190fd5b6006839055620002e382640100000000620004a2810204565b60408051808201909152600b81527f455243373737546f6b656e00000000000000000000000000000000000000000060208201526200032c90306401000000006200057b810204565b5050835162000346935060129250602085019150620007f5565b5050505050505062000367336200068b640100000000026401000000009004565b60408051808201909152600c81527f45524331343030546f6b656e00000000000000000000000000000000000000006020820152620003b090306401000000006200057b810204565b505060088054600160ff19918216811790925560188054909116909117905550620008df92505050565b600160a060020a03821615156200047757604080517f08c379a0000000000000000000000000000000000000000000000000000000008152602060048201526024808201527f416374696f6e20426c6f636b6564202d204e6f7420612076616c69642061646460448201527f7265737300000000000000000000000000000000000000000000000000000000606482015290519081900360840190fd5b600160a060020a03919091166000908152600160205260409020805460ff1916911515919091179055565b60005b600b5481101562000503576000600c6000600b84815481101515620004c657fe5b600091825260208083209190910154600160a060020a031683528201929092526040019020805460ff1916911515919091179055600101620004a5565b5060005b815181101562000561576001600c600084848151811015156200052657fe5b602090810291909101810151600160a060020a03168252810191909152604001600020805460ff191691151591909117905560010162000507565b5080516200057790600b90602084019062000832565b5050565b6000826040516020018082805190602001908083835b60208310620005b25780518252601f19909201916020918201910162000591565b51815160209384036101000a60001901801990921691161790526040805192909401828103601f19018352808552825192909101919091207f29965a1d00000000000000000000000000000000000000000000000000000000825230600483015260248201819052600160a060020a0388166044830152925192955073820b586c8c28125366c998641b09dcbe7d4cbf0694506329965a1d9350606480820193600093509182900301818387803b1580156200066d57600080fd5b505af115801562000682573d6000803e3d6000fd5b50505050505050565b620006a660168264010000000062004ff8620006dd82021704565b604051600160a060020a038216907f6ae172837ea30b801fbfcdd4108aa1d5bf8ff775444fd70256b44e6bf3dfc3f690600090a250565b600160a060020a0381161515620006f357600080fd5b62000708828264010000000062000738810204565b156200071357600080fd5b600160a060020a0316600090815260209190915260409020805460ff19166001179055565b6000600160a060020a03821615156200075057600080fd5b50600160a060020a03166000908152602091909152604090205460ff1690565b828054600181600116156101000203166002900490600052602060002090601f016020900481019282601f10620007b357805160ff1916838001178555620007e3565b82800160010185558215620007e3579182015b82811115620007e3578251825591602001919060010190620007c6565b50620007f192915062000898565b5090565b828054828255906000526020600020908101928215620007e35791602002820182811115620007e3578251825591602001919060010190620007c6565b8280548282559060005260206000209081019282156200088a579160200282015b828111156200088a5782518254600160a060020a031916600160a060020a0390911617825560209092019160019091019062000853565b50620007f1929150620008b8565b620008b591905b80821115620007f157600081556001016200089f565b90565b620008b591905b80821115620007f1578054600160a060020a0319168155600101620008bf565b61585480620008ef6000396000f3fe6080604052600436106102375763ffffffff60e060020a600035041663010648ca811461023c57806306fdde03146102c2578063103ef9e11461034c57806313d557bc14610385578063168ecec51461047057806316e1aed4146104a957806318160ddd1461052d5780632535f762146105545780632f1cae85146105e657806330e828031461060f57806334a9a1ae146106485780634c783bf5146106ad578063556f0dc7146106c2578063626d0358146106d757806362eb00681461075457806367c84919146107dd578063691021901461087657806369598efe146108a95780636c23c7b0146108be5780636c30d170146109f35780636d77cad614610a0857806370a0823114610a49578063715018a614610a7c57806371de636214610a91578063740ab8f414610ac457806375f9ae8614610af75780637cc0c3a714610b32578063861ed3ea14610b47578063868d538314610b715780638c0dee9c14610c605780638da5cb5b14610d545780638f32d59b14610d855780639212712614610d9a578063959b8c3f14610e3357806395d89b4114610e66578063983b2d5614610e7b5780639865027514610eae578063aa271e1a14610ec3578063b0573de614610ef6578063b10d6b4114610f29578063ca281fd914610fd2578063d95b637114610fe7578063e77c646d14611022578063ea74838a146110a6578063ec9a6e8714611123578063f2fde38b146111a0578063f3d490db146111d3578063fad8b32a1461126c578063ffa90f7f1461129f575b600080fd5b34801561024857600080fd5b506102c06004803603606081101561025f57600080fd5b8135919081019060408101602082013564010000000081111561028157600080fd5b82018360208201111561029357600080fd5b803590602001918460018302840111640100000000831117156102b557600080fd5b919350915035611383565b005b3480156102ce57600080fd5b506102d7611478565b6040805160208082528351818301528351919283929083019185019080838360005b838110156103115781810151838201526020016102f9565b50505050905090810190601f16801561033e5780820380516001836020036101000a031916815260200191505b509250505060405180910390f35b34801561035857600080fd5b506102c06004803603604081101561036f57600080fd5b5080359060200135600160a060020a031661150f565b34801561039157600080fd5b506102c0600480360360a08110156103a857600080fd5b813591600160a060020a0360208201351691604082013591908101906080810160608201356401000000008111156103df57600080fd5b8201836020820111156103f157600080fd5b8035906020019184600183028401116401000000008311171561041357600080fd5b91939092909160208101903564010000000081111561043157600080fd5b82018360208201111561044357600080fd5b8035906020019184600183028401116401000000008311171561046557600080fd5b509092509050611573565b34801561047c57600080fd5b506102c06004803603604081101561049357600080fd5b5080359060200135600160a060020a031661175e565b3480156104b557600080fd5b506102c0600480360360408110156104cc57600080fd5b813591908101906040810160208201356401000000008111156104ee57600080fd5b82018360208201111561050057600080fd5b8035906020019184602083028401116401000000008311171561052257600080fd5b5090925090506117bf565b34801561053957600080fd5b50610542611814565b60408051918252519081900360200190f35b34801561056057600080fd5b506102c06004803603606081101561057757600080fd5b600160a060020a03823516916020810135918101906060810160408201356401000000008111156105a757600080fd5b8201836020820111156105b957600080fd5b803590602001918460018302840111640100000000831117156105db57600080fd5b50909250905061181a565b3480156105f257600080fd5b506105fb61195d565b604080519115158252519081900360200190f35b34801561061b57600080fd5b506105426004803603604081101561063257600080fd5b5080359060200135600160a060020a0316611966565b34801561065457600080fd5b5061065d611991565b60408051602080825283518183015283519192839290830191858101910280838360005b83811015610699578181015183820152602001610681565b505050509050019250505060405180910390f35b3480156106b957600080fd5b506105fb6119e8565b3480156106ce57600080fd5b506105426119f1565b3480156106e357600080fd5b506102c0600480360360208110156106fa57600080fd5b81019060208101813564010000000081111561071557600080fd5b82018360208201111561072757600080fd5b8035906020019184602083028401116401000000008311171561074957600080fd5b5090925090506119f7565b34801561076057600080fd5b506102c06004803603606081101561077757600080fd5b81359160208101359181019060608101604082013564010000000081111561079e57600080fd5b8201836020820111156107b057600080fd5b803590602001918460018302840111640100000000831117156107d257600080fd5b509092509050611a16565b3480156107e957600080fd5b506102c06004803603608081101561080057600080fd5b813591600160a060020a03602082013516916040820135919081019060808101606082013564010000000081111561083757600080fd5b82018360208201111561084957600080fd5b8035906020019184600183028401116401000000008311171561086b57600080fd5b509092509050611b52565b34801561088257600080fd5b506105426004803603602081101561089957600080fd5b5035600160a060020a0316611d1a565b3480156108b557600080fd5b5061065d611d39565b3480156108ca57600080fd5b506109b2600480360360c08110156108e157600080fd5b813591600160a060020a03602082013581169260408301359091169160608101359181019060a08101608082013564010000000081111561092157600080fd5b82018360208201111561093357600080fd5b8035906020019184600183028401116401000000008311171561095557600080fd5b91939092909160208101903564010000000081111561097357600080fd5b82018360208201111561098557600080fd5b803590602001918460018302840111640100000000831117156109a757600080fd5b509092509050611d8f565b604080517fff000000000000000000000000000000000000000000000000000000000000009094168452602084019290925282820152519081900360600190f35b3480156109ff57600080fd5b506102c0611ee3565b348015610a1457600080fd5b506105fb60048036036060811015610a2b57600080fd5b50803590600160a060020a0360208201358116916040013516611f02565b348015610a5557600080fd5b5061054260048036036020811015610a6c57600080fd5b5035600160a060020a0316611f19565b348015610a8857600080fd5b506102c0611f34565b348015610a9d57600080fd5b506105fb60048036036020811015610ab457600080fd5b5035600160a060020a0316611f9e565b348015610ad057600080fd5b5061065d60048036036020811015610ae757600080fd5b5035600160a060020a0316611fbc565b348015610b0357600080fd5b506102c060048036036040811015610b1a57600080fd5b50600160a060020a0381351690602001351515612028565b348015610b3e57600080fd5b5061065d612049565b348015610b5357600080fd5b5061065d60048036036020811015610b6a57600080fd5b50356120aa565b348015610b7d57600080fd5b506102c0600480360360a0811015610b9457600080fd5b600160a060020a03823581169260208101359091169160408201359190810190608081016060820135640100000000811115610bcf57600080fd5b820183602082011115610be157600080fd5b80359060200191846001830284011164010000000083111715610c0357600080fd5b919390929091602081019035640100000000811115610c2157600080fd5b820183602082011115610c3357600080fd5b80359060200191846001830284011164010000000083111715610c5557600080fd5b509092509050612115565b348015610c6c57600080fd5b50610542600480360360c0811015610c8357600080fd5b813591600160a060020a03602082013581169260408301359091169160608101359181019060a081016080820135640100000000811115610cc357600080fd5b820183602082011115610cd557600080fd5b80359060200191846001830284011164010000000083111715610cf757600080fd5b919390929091602081019035640100000000811115610d1557600080fd5b820183602082011115610d2757600080fd5b80359060200191846001830284011164010000000083111715610d4957600080fd5b5090925090506122f4565b348015610d6057600080fd5b50610d696124f7565b60408051600160a060020a039092168252519081900360200190f35b348015610d9157600080fd5b506105fb612506565b348015610da657600080fd5b506109b260048036036080811015610dbd57600080fd5b813591600160a060020a036020820135169160408201359190810190608081016060820135640100000000811115610df457600080fd5b820183602082011115610e0657600080fd5b80359060200191846001830284011164010000000083111715610e2857600080fd5b509092509050612517565b348015610e3f57600080fd5b506102c060048036036020811015610e5657600080fd5b5035600160a060020a0316612615565b348015610e7257600080fd5b506102d761266e565b348015610e8757600080fd5b506102c060048036036020811015610e9e57600080fd5b5035600160a060020a03166126cf565b348015610eba57600080fd5b506102c06126ef565b348015610ecf57600080fd5b506105fb60048036036020811015610ee657600080fd5b5035600160a060020a03166126fa565b348015610f0257600080fd5b5061065d60048036036020811015610f1957600080fd5b5035600160a060020a031661270d565b348015610f3557600080fd5b50610f5360048036036020811015610f4c57600080fd5b5035612777565b6040518080602001838152602001828103825284818151815260200191508051906020019080838360005b83811015610f96578181015183820152602001610f7e565b50505050905090810190601f168015610fc35780820380516001836020036101000a031916815260200191505b50935050505060405180910390f35b348015610fde57600080fd5b506102c06128a0565b348015610ff357600080fd5b506105fb6004803603604081101561100a57600080fd5b50600160a060020a03813581169160200135166128bf565b34801561102e57600080fd5b506102c06004803603604081101561104557600080fd5b8135919081019060408101602082013564010000000081111561106757600080fd5b82018360208201111561107957600080fd5b8035906020019184600183028401116401000000008311171561109b57600080fd5b5090925090506128cb565b3480156110b257600080fd5b506102c0600480360360208110156110c957600080fd5b8101906020810181356401000000008111156110e457600080fd5b8201836020820111156110f657600080fd5b8035906020019184602083028401116401000000008311171561111857600080fd5b509092509050612a0c565b34801561112f57600080fd5b506102c06004803603602081101561114657600080fd5b81019060208101813564010000000081111561116157600080fd5b82018360208201111561117357600080fd5b8035906020019184602083028401116401000000008311171561119557600080fd5b509092509050612a5b565b3480156111ac57600080fd5b506102c0600480360360208110156111c357600080fd5b5035600160a060020a0316612a75565b3480156111df57600080fd5b50610542600480360360808110156111f657600080fd5b813591600160a060020a03602082013516916040820135919081019060808101606082013564010000000081111561122d57600080fd5b82018360208201111561123f57600080fd5b8035906020019184600183028401116401000000008311171561126157600080fd5b509092509050612a91565b34801561127857600080fd5b506102c06004803603602081101561128f57600080fd5b5035600160a060020a0316612bdb565b3480156112ab57600080fd5b506102c0600480360360808110156112c257600080fd5b600160a060020a03823516916020810135918101906060810160408201356401000000008111156112f257600080fd5b82018360208201111561130457600080fd5b8035906020019184600183028401116401000000008311171561132657600080fd5b91939092909160208101903564010000000081111561134457600080fd5b82018360208201111561135657600080fd5b8035906020019184600183028401116401000000008311171561137857600080fd5b509092509050612c31565b61138b612506565b151561139657600080fd5b6040805160606020601f860181900402820181018352918101848152909182919086908690819085018382808284376000920182905250938552505050602091820184905286815260178252604090208251805191926113fb92849290910190615576565b5060208201518160010155905050837f89730c201d2df6a4cef4e892559e63e022078b0ee939d11b6ced61fb098b282484848460405180806020018381526020018281038252858582818152602001925080828437600083820152604051601f909101601f1916909201829003965090945050505050a250505050565b60048054604080516020601f60026000196101006001881615020190951694909404938401819004810282018101909252828152606093909290918301828280156115045780601f106114d957610100808354040283529160200191611504565b820191906000526020600020905b8154815290600101906020018083116114e757829003601f168201915b505050505090505b90565b3360008181526013602090815260408083208684528252808320600160a060020a0386168085529252808320805460ff1916600117905551909185917f3646a897c70797ecc134b0adc32f471b07bf1d6f451133b0384badab531e3fd69190a45050565b81818080601f01602080910402602001604051908101604052809392919081815260200183838082843760009201829052503381526001602052604090205460ff1692508291506115cd905057506115cd81600080612e19565b1515611625576040805160e560020a62461bcd028152602060048201526035602482015260008051602061578983398151915260448201526000805160206157a9833981519152606482015290519081900360840190fd5b3360008181526002602090815260409182902080546001019055815192835290516000805160206157e98339815191529281900390910190a16000600160a060020a038816156116755787611677565b335b9050611684893383612f7b565b15156116dc576040805160e560020a62461bcd02815260206004820152602b60248201526000805160206158098339815191526044820152600080516020615749833981519152606482015290519081900360840190fd5b6117538933838a8a8a8080601f01602080910402602001604051908101604052809392919081815260200183838082843760009201919091525050604080516020601f8e018190048102820181019092528c815292508c91508b9081908401838280828437600092019190915250612fff92505050565b505050505050505050565b3360008181526013602090815260408083208684528252808320600160a060020a0386168085529252808320805460ff1916905551909185917f3b287c4f1bab4df949b33bceacef984f544dc5d5479930d00e4ee8c9d8dd96f29190a45050565b6117c7612506565b15156117d257600080fd5b61180f838383808060200260200160405190810160405280939291908181526020018383602002808284376000920191909152506131ba92505050565b505050565b60075490565b81818080601f01602080910402602001604051908101604052809392919081815260200183838082843760009201829052503381526001602052604090205460ff1692508291506118749050575061187481600080612e19565b15156118cc576040805160e560020a62461bcd028152602060048201526035602482015260008051602061578983398151915260448201526000805160206157a9833981519152606482015290519081900360840190fd5b3360008181526002602090815260409182902080546001019055815192835290516000805160206157e98339815191529281900390910190a16119563333878787878080601f0160208091040260200160405190810160405280939291908181526020018383808284376000920182905250604080516020810190915290815292506132bd915050565b5050505050565b60185460ff1690565b600160a060020a03811660009081526010602090815260408083208584529091529020545b92915050565b6060601280548060200260200160405190810160405280929190818152602001828054801561150457602002820191906000526020600020905b8154815260200190600101908083116119cb575050505050905090565b60085460ff1690565b60065490565b6119ff612506565b1515611a0a57600080fd5b61180f601283836155f4565b81818080601f01602080910402602001604051908101604052809392919081815260200183838082843760009201829052503381526001602052604090205460ff169250829150611a7090505750611a7081600080612e19565b1515611ac8576040805160e560020a62461bcd028152602060048201526035602482015260008051602061578983398151915260448201526000805160206157a9833981519152606482015290519081900360840190fd5b3360008181526002602090815260409182902080546001019055815192835290516000805160206157e98339815191529281900390910190a16119568533338787878080601f016020809104026020016040519081016040528093929190818152602001838380828437600092018290525060408051602081019091529081529250612fff915050565b611b5b336126fa565b1515611b6657600080fd5b60185460ff161515611bd6576040805160e560020a62461bcd02815260206004820152602860248201527f41382c205472616e7366657220426c6f636b6564202d20546f6b656e207265736044820152600080516020615709833981519152606482015290519081900360840190fd5b81818080601f01602080910402602001604051908101604052809392919081815260200183838082843760009201829052503381526001602052604090205460ff169250829150611c3090505750611c3081600080612e19565b1515611c88576040805160e560020a62461bcd028152602060048201526035602482015260008051602061578983398151915260448201526000805160206157a9833981519152606482015290519081900360840190fd5b3360008181526002602090815260409182902080546001019055815192835290516000805160206157e98339815191529281900390910190a1611d128633878787878080601f01602080910402602001604051908101604052809392919081815260200183838082843760009201829052506040805160208101909152908152925061343d915050565b505050505050565b600160a060020a0381166000908152600260205260409020545b919050565b6060600d80548060200260200160405190810160405280929190818152602001828054801561150457602002820191906000526020600020908154815260200190600101908083116119cb575050505050905090565b6000806000611df585858080601f016020809104026020016040519081016040528093929190818152602001838380828437600092018290525092507f8c0dee9c000000000000000000000000000000000000000000000000000000009150612e199050565b1515611e2957507fa30000000000000000000000000000000000000000000000000000000000000091506000905089611ed5565b6000600160a060020a038b1615611e40578a611e42565b335b9050611ecd8c33838d8d8d8d8080601f016020809104026020016040519081016040528093929190818152602001838380828437600081840152601f19601f820116905080830192505050505050508c8c8080601f0160208091040260200160405190810160405280939291908181526020018383808284376000920191909152506134d592505050565b935093509350505b985098509895505050505050565b611eeb612506565b1515611ef657600080fd5b6018805460ff19169055565b6000611f0f848484612f7b565b90505b9392505050565b600160a060020a031660009081526009602052604090205490565b611f3c612506565b1515611f4757600080fd5b60008054604051600160a060020a03909116907f8be0079c531659141344cd1fd0a4f28419497f9722a3daafe3b4186f6b6457e0908390a36000805473ffffffffffffffffffffffffffffffffffffffff19169055565b600160a060020a031660009081526001602052604090205460ff1690565b600160a060020a0381166000908152600f602090815260409182902080548351818402810184019094528084526060939283018282801561201c57602002820191906000526020600020905b815481526020019060010190808311612008575b50505050509050919050565b612030612506565b151561203b57600080fd5b6120458282613a6a565b5050565b6060600b80548060200260200160405190810160405280929190818152602001828054801561150457602002820191906000526020600020905b8154600160a060020a03168152600190910190602001808311612083575050505050905090565b60008181526014602090815260409182902080548351818402810184019094528084526060939283018282801561201c57602002820191906000526020600020905b8154600160a060020a031681526001909101906020018083116120ec5750505050509050919050565b81818080601f01602080910402602001604051908101604052809392919081815260200183838082843760009201829052503381526001602052604090205460ff16925082915061216f9050575061216f81600080612e19565b15156121c7576040805160e560020a62461bcd028152602060048201526035602482015260008051602061578983398151915260448201526000805160206157a9833981519152606482015290519081900360840190fd5b3360008181526002602090815260409182902080546001019055815192835290516000805160206157e98339815191529281900390910190a16000600160a060020a038916156122175788612219565b335b90506122253382613b1a565b151561227d576040805160e560020a62461bcd02815260206004820152602b60248201526000805160206158098339815191526044820152600080516020615749833981519152606482015290519081900360840190fd5b61175333828a8a8a8a8080601f01602080910402602001604051908101604052809392919081815260200183838082843760009201919091525050604080516020601f8e018190048102820181019092528c815292508c91508b90819084018382808284376000920191909152506132bd92505050565b600082828080601f01602080910402602001604051908101604052809392919081815260200183838082843760009201829052503381526001602052604090205460ff1692508291506123509050575061235081600080612e19565b15156123a8576040805160e560020a62461bcd028152602060048201526035602482015260008051602061578983398151915260448201526000805160206157a9833981519152606482015290519081900360840190fd5b3360008181526002602090815260409182902080546001019055815192835290516000805160206157e98339815191529281900390910190a16000600160a060020a038a16156123f857896123fa565b335b90506124078b3383612f7b565b151561245f576040805160e560020a62461bcd02815260206004820152602b60248201526000805160206158098339815191526044820152600080516020615749833981519152606482015290519081900360840190fd5b6124e88b33838c8c8c8c8080601f016020809104026020016040519081016040528093929190818152602001838380828437600081840152601f19601f820116905080830192505050505050508b8b8080601f016020809104026020016040519081016040528093929190818152602001838380828437600092019190915250613b9492505050565b9b9a5050505050505050505050565b600054600160a060020a031690565b600054600160a060020a0316331490565b600080600061257d85858080601f016020809104026020016040519081016040528093929190818152602001838380828437600092018290525092507ff3d490db000000000000000000000000000000000000000000000000000000009150612e199050565b15156125b157507fa3000000000000000000000000000000000000000000000000000000000000009150600090508661260a565b6126038833338a8a8a8a8080601f0160208091040260200160405190810160405280939291908181526020018383808284376000920182905250604080516020810190915290815292506134d5915050565b9250925092505b955095509592505050565b600160a060020a0381166000818152600a60209081526040808320338085529252808320805460ff19166001179055519092917ff4caeb2d6ca8932a215a353d0703c326ec2d81fc68170f320eb2ab49e9df61f991a350565b60058054604080516020601f60026000196101006001881615020190951694909404938401819004810282018101909252828152606093909290918301828280156115045780601f106114d957610100808354040283529160200191611504565b6126d8336126fa565b15156126e357600080fd5b6126ec81613dde565b50565b6126f833613e26565b565b600061198b60168363ffffffff613e6e16565b600160a060020a03811660009081526011602090815260409182902080548351818402810184019094528084526060939283018282801561201c57602002820191906000526020600020908154815260200190600101908083116120085750505050509050919050565b600081815260176020526040812054606091906002600019610100600184161502019091160415156127f3576040805160e560020a62461bcd02815260206004820152601f60248201527f416374696f6e20426c6f636b6564202d20456d70747920646f63756d656e7400604482015290519081900360640190fd5b60008381526017602090815260409182902060018082015482548551600293821615610100026000190190911692909204601f810185900485028301850190955284825291939192909184918301828280156128905780601f1061286557610100808354040283529160200191612890565b820191906000526020600020905b81548152906001019060200180831161287357829003601f168201915b5050505050915091509150915091565b6128a8612506565b15156128b357600080fd5b6008805460ff19169055565b6000611f128383613b1a565b81818080601f01602080910402602001604051908101604052809392919081815260200183838082843760009201829052503381526001602052604090205460ff1692508291506129259050575061292581600080612e19565b151561297d576040805160e560020a62461bcd028152602060048201526035602482015260008051602061578983398151915260448201526000805160206157a9833981519152606482015290519081900360840190fd5b3360008181526002602090815260409182902080546001019055815192835290516000805160206157e98339815191529281900390910190a1612a0633338686868080601f016020809104026020016040519081016040528093929190818152602001838380828437600092018290525060408051602081019091529081529250613ea5915050565b50505050565b612a14612506565b1515612a1f57600080fd5b61204582828080602002602001604051908101604052809392919081815260200183836020028082843760009201919091525061402192505050565b33600090815260116020526040902061180f9083836155f4565b612a7d612506565b1515612a8857600080fd5b6126ec816140ee565b600082828080601f01602080910402602001604051908101604052809392919081815260200183838082843760009201829052503381526001602052604090205460ff169250829150612aed90505750612aed81600080612e19565b1515612b45576040805160e560020a62461bcd028152602060048201526035602482015260008051602061578983398151915260448201526000805160206157a9833981519152606482015290519081900360840190fd5b3360008181526002602090815260409182902080546001019055815192835290516000805160206157e98339815191529281900390910190a1612bd0873333898989898080601f016020809104026020016040519081016040528093929190818152602001838380828437600092018290525060408051602081019091529081529250613b94915050565b979650505050505050565b600160a060020a0381166000818152600a60209081526040808320338085529252808320805460ff19169055519092917f50546e66e5f44d728365dc3908c63bc5cfeeab470722c1677e3073a6ac294aa191a350565b81818080601f01602080910402602001604051908101604052809392919081815260200183838082843760009201829052503381526001602052604090205460ff169250829150612c8b90505750612c8b81600080612e19565b1515612ce3576040805160e560020a62461bcd028152602060048201526035602482015260008051602061578983398151915260448201526000805160206157a9833981519152606482015290519081900360840190fd5b3360008181526002602090815260409182902080546001019055815192835290516000805160206157e98339815191529281900390910190a16000600160a060020a03881615612d335787612d35565b335b9050612d413382613b1a565b1515612d99576040805160e560020a62461bcd02815260206004820152602b60248201526000805160206158098339815191526044820152600080516020615749833981519152606482015290519081900360840190fd5b612e0f33828989898080601f01602080910402602001604051908101604052809392919081815260200183838082843760009201919091525050604080516020601f8d018190048102820181019092528b815292508b91508a9081908401838280828437600092019190915250613ea592505050565b5050505050505050565b6000808451118015612f665750836000815181101515612e3557fe5b90602001015160f860020a900460f860020a027effffffffffffffffffffffffffffffffffffffffffffffffffffffffffffff19167f10000000000000000000000000000000000000000000000000000000000000001480612ef95750836000815181101515612ea157fe5b90602001015160f860020a900460f860020a027effffffffffffffffffffffffffffffffffffffffffffffffffffffffffffff19167f1100000000000000000000000000000000000000000000000000000000000000145b80612f665750836000815181101515612f0e57fe5b90602001015160f860020a900460f860020a027effffffffffffffffffffffffffffffffffffffffffffffffffffffffffffff19167f2200000000000000000000000000000000000000000000000000000000000000145b15612f7357506001611f12565b506000611f12565b6000612f878383613b1a565b80612fbf5750600160a060020a03808316600090815260136020908152604080832088845282528083209387168352929052205460ff165b80611f0f575060085460ff168015611f0f575050506000918252601560209081526040808420600160a060020a0393909316845291905290205460ff1690565b600160a060020a038416600090815260106020908152604080832089845290915290205483111561307c576040805160e560020a62461bcd02815260206004820152603260248201526000805160206157c98339815191526044820152600080516020615769833981519152606482015290519081900360840190fd5b61308784878561416b565b6130958686868686866143fa565b83600160a060020a031685600160a060020a0316877fa4f62471c9bdf88115b97203943c74c59b655913ee5ee592706d84ef53fb6be2868686604051808481526020018060200180602001838103835285818151815260200191508051906020019080838360005b838110156131155781810151838201526020016130fd565b50505050905090810190601f1680156131425780820380516001836020036101000a031916815260200191505b50838103825284518152845160209182019186019080838360005b8381101561317557818101518382015260200161315d565b50505050905090810190601f1680156131a25780820380516001836020036101000a031916815260200191505b509550505050505060405180910390a4505050505050565b60005b600083815260146020526040902054811015613236576000838152601560209081526040808320601490925282208054839190859081106131fa57fe5b600091825260208083209190910154600160a060020a031683528201929092526040019020805460ff19169115159190911790556001016131bd565b5060005b815181101561329d57600083815260156020526040812083516001929085908590811061326357fe5b602090810291909101810151600160a060020a03168252810191909152604001600020805460ff191691151591909117905560010161323a565b506000828152601460209081526040909120825161180f9284019061562f565b60606132c886614720565b80519091501515613325576040805160e560020a62461bcd02815260206004820152602860248201526000805160206157298339815191526044820152600080516020615709833981519152606482015290519081900360840190fd5b836000805b83518110156133e457600160a060020a0389166000908152601060205260408120855190919086908490811061335c57fe5b90602001906020020151815260200190815260200160002054915081831115156133b0576133a6848281518110151561339157fe5b906020019060200201518b8b8b878b8b613b94565b50600092506133e4565b6133d684828151811015156133c157fe5b906020019060200201518b8b8b868b8b613b94565b50818303925060010161332a565b508115611753576040805160e560020a62461bcd02815260206004820152602860248201526000805160206157298339815191526044820152600080516020615709833981519152606482015290519081900360840190fd5b61344b868686868686614801565b613456848785614a03565b83600160a060020a031685600160a060020a0316877ff0ded82afbb1bb3ff3fc48cb2a26584aa84e4af0bf309c804ecdb94d0f6a98bb86868660405180848152602001806020018060200183810383528581815181526020019150805190602001908083836000838110156131155781810151838201526020016130fd565b60008060006134e58a8a8a612f7b565b151561351957507fa70000000000000000000000000000000000000000000000000000000000000091506000905088613a5d565b600160a060020a0388166000908152600960205260409020548611806135615750600160a060020a03881660009081526010602090815260408083208d845290915290205486115b1561359457507fa40000000000000000000000000000000000000000000000000000000000000091506000905088613a5d565b600160a060020a03871615156135d257507fa60000000000000000000000000000000000000000000000000000000000000091506000905088613a5d565b6000806136148a6040805190810160405280601281526020017f455243373737546f6b656e7353656e6465720000000000000000000000000000815250614b2f565b9150613655896040805190810160405280601581526020017f455243373737546f6b656e73526563697069656e740000000000000000000000815250614b2f565b9050600160a060020a038216158015906137ec575081600160a060020a0316632823e8718d8c8c8c8c8c6040518763ffffffff1660e060020a0281526004018087815260200186600160a060020a0316600160a060020a0316815260200185600160a060020a0316600160a060020a031681526020018481526020018060200180602001838103835285818151815260200191508051906020019080838360005b8381101561370e5781810151838201526020016136f6565b50505050905090810190601f16801561373b5780820380516001836020036101000a031916815260200191505b50838103825284518152845160209182019186019080838360005b8381101561376e578181015183820152602001613756565b50505050905090810190601f16801561379b5780820380516001836020036101000a031916815260200191505b509850505050505050505060206040518083038186803b1580156137be57600080fd5b505afa1580156137d2573d6000803e3d6000fd5b505050506040513d60208110156137e857600080fd5b5051155b1561382357507fa5000000000000000000000000000000000000000000000000000000000000009350600092508a9150613a5d9050565b600160a060020a038116158015906139b8575080600160a060020a03166380d610128d8c8c8c8c8c6040518763ffffffff1660e060020a0281526004018087815260200186600160a060020a0316600160a060020a0316815260200185600160a060020a0316600160a060020a031681526020018481526020018060200180602001838103835285818151815260200191508051906020019080838360005b838110156138da5781810151838201526020016138c2565b50505050905090810190601f1680156139075780820380516001836020036101000a031916815260200191505b50838103825284518152845160209182019186019080838360005b8381101561393a578181015183820152602001613922565b50505050905090810190601f1680156139675780820380516001836020036101000a031916815260200191505b509850505050505050505060206040518083038186803b15801561398a57600080fd5b505afa15801561399e573d6000803e3d6000fd5b505050506040513d60208110156139b457600080fd5b5051155b156139ef57507fa6000000000000000000000000000000000000000000000000000000000000009350600092508a9150613a5d9050565b6139f888614c4b565b1515613a3057507fa9000000000000000000000000000000000000000000000000000000000000009350600092508a9150613a5d9050565b507fa2000000000000000000000000000000000000000000000000000000000000009350600092508a9150505b9750975097945050505050565b600160a060020a0382161515613aef576040805160e560020a62461bcd028152602060048201526024808201527f416374696f6e20426c6f636b6564202d204e6f7420612076616c69642061646460448201527f7265737300000000000000000000000000000000000000000000000000000000606482015290519081900360840190fd5b600160a060020a03919091166000908152600160205260409020805460ff1916911515919091179055565b600081600160a060020a031683600160a060020a03161480613b615750600160a060020a038084166000908152600a602090815260408083209386168352929052205460ff165b80611f12575060085460ff168015611f1257505050600160a060020a03166000908152600c602052604090205460ff1690565b600160a060020a03851660009081526010602090815260408083208a8452909152812054841115613c11576040805160e560020a62461bcd02815260206004820152603260248201526000805160206157c98339815191526044820152600080516020615769833981519152606482015290519081900360840190fd5b8151889015801590613c235750835115155b15613c3557613c328985614c7a565b90505b613c40878a8761416b565b613c51898989898989896001614ca6565b613c5c868287614a03565b85600160a060020a031687600160a060020a03168a7fff4e9a26af4eb73b8bacfaa4abd4fea03d9448e7b912dc5ff4019048875aa2d48b8989896040518085600160a060020a0316600160a060020a031681526020018481526020018060200180602001838103835285818151815260200191508051906020019080838360005b83811015613cf5578181015183820152602001613cdd565b50505050905090810190601f168015613d225780820380516001836020036101000a031916815260200191505b50838103825284518152845160209182019186019080838360005b83811015613d55578181015183820152602001613d3d565b50505050905090810190601f168015613d825780820380516001836020036101000a031916815260200191505b50965050505050505060405180910390a4808914613dd25760408051868152905182918b917f67c8ba31d2dd11f1384577b3405b04ed91eed1231e408432ad2458cab37b2fa19181900360200190a35b98975050505050505050565b613def60168263ffffffff614ff816565b604051600160a060020a038216907f6ae172837ea30b801fbfcdd4108aa1d5bf8ff775444fd70256b44e6bf3dfc3f690600090a250565b613e3760168263ffffffff61504616565b604051600160a060020a038216907fe94479a9f7e1952cc78f2d6baab678adc1b772d936c6583def489e524cb6669290600090a250565b6000600160a060020a0382161515613e8557600080fd5b50600160a060020a03166000908152602091909152604090205460ff1690565b6060613eb085614720565b80519091501515613f0d576040805160e560020a62461bcd02815260206004820152602860248201526000805160206157298339815191526044820152600080516020615709833981519152606482015290519081900360840190fd5b836000805b8351811015613fc857600160a060020a03881660009081526010602052604081208551909190869084908110613f4457fe5b9060200190602002015181526020019081526020016000205491508183111515613f9657613f8d8482815181101515613f7957fe5b906020019060200201518a8a868a8a612fff565b60009250613fc8565b613fbb8482815181101515613fa757fe5b906020019060200201518a8a858a8a612fff565b8183039250600101613f12565b508115612e0f576040805160e560020a62461bcd02815260206004820152602860248201526000805160206157298339815191526044820152600080516020615709833981519152606482015290519081900360840190fd5b60005b600b5481101561407f576000600c6000600b8481548110151561404357fe5b600091825260208083209190910154600160a060020a031683528201929092526040019020805460ff1916911515919091179055600101614024565b5060005b81518110156140da576001600c600084848151811015156140a057fe5b602090810291909101810151600160a060020a03168252810191909152604001600020805460ff1916911515919091179055600101614083565b50805161204590600b90602084019061562f565b600160a060020a038116151561410357600080fd5b60008054604051600160a060020a03808516939216917f8be0079c531659141344cd1fd0a4f28419497f9722a3daafe3b4186f6b6457e091a36000805473ffffffffffffffffffffffffffffffffffffffff1916600160a060020a0392909216919091179055565b600160a060020a038316600090815260106020908152604080832085845290915290205461419f908263ffffffff61509216565b600160a060020a0384166000908152601060209081526040808320868452825280832093909355600e905220546141dc908263ffffffff61509216565b6000838152600e6020908152604080832093909355600160a060020a0386168252601081528282208583529052908120541515614340575060005b600160a060020a0384166000908152600f602052604090205481101561434057600160a060020a0384166000908152600f6020526040902080548491908390811061425e57fe5b9060005260206000200154141561433857600160a060020a0384166000908152600f602052604090208054600019810190811061429757fe5b6000918252602080832090910154600160a060020a0387168352600f90915260409091208054839081106142c757fe5b6000918252602080832090910192909255600160a060020a0386168152600f90915260409020805460001981019081106142fd57fe5b60009182526020808320909101829055600160a060020a0386168252600f90526040902080549061433290600019830161569d565b50614340565b600101614217565b6000838152600e60205260409020541515612a06575060005b600d54811015612a065782600d8281548110151561437357fe5b906000526020600020015414156143f257600d8054600019810190811061439657fe5b9060005260206000200154600d828154811015156143b057fe5b600091825260209091200155600d805460001981019081106143ce57fe5b6000918252602082200155600d8054906143ec90600019830161569d565b50612a06565b600101614359565b600380546001019081905561440e84614c4b565b151561448a576040805160e560020a62461bcd02815260206004820152602860248201527f41393a205472616e7366657220426c6f636b6564202d20546f6b656e2067726160448201527f6e756c6172697479000000000000000000000000000000000000000000000000606482015290519081900360840190fd5b600160a060020a0385161515614510576040805160e560020a62461bcd02815260206004820152602a60248201527f41353a205472616e7366657220426c6f636b6564202d2053656e646572206e6f60448201527f7420656c696769626c6500000000000000000000000000000000000000000000606482015290519081900360840190fd5b600160a060020a038516600090815260096020526040902054841115614582576040805160e560020a62461bcd02815260206004820152603260248201526000805160206157c98339815191526044820152600080516020615769833981519152606482015290519081900360840190fd5b61459287878760008888886150a7565b600160a060020a0385166000908152600960205260409020546145bb908563ffffffff61509216565b600160a060020a0386166000908152600960205260409020556007546145e7908563ffffffff61509216565b60078190555084600160a060020a031686600160a060020a03167f1f58e3485c3f6fc2bddf52e2bd0d82ad5c19e1ac9ab403b1aa9f0a1794d2bfb6868686604051808481526020018060200180602001838103835285818151815260200191508051906020019080838360005b8381101561466c578181015183820152602001614654565b50505050905090810190601f1680156146995780820380516001836020036101000a031916815260200191505b50838103825284518152845160209182019186019080838360005b838110156146cc5781810151838201526020016146b4565b50505050905090810190601f1680156146f95780820380516001836020036101000a031916815260200191505b509550505050505060405180910390a3600354811461471757600080fd5b50505050505050565b600160a060020a038116600090815260116020526040902054606090156147ab57600160a060020a0382166000908152601160209081526040918290208054835181840281018401909452808452909183018282801561479f57602002820191906000526020600020905b81548152602001906001019080831161478b575b50505050509050611d34565b601280548060200260200160405190810160405280929190818152602001828054801561479f576020028201919060005260206000209081548152602001906001019080831161478b5750505050509050611d34565b600380546001019081905561481584614c4b565b1515614891576040805160e560020a62461bcd02815260206004820152602860248201527f41393a205472616e7366657220426c6f636b6564202d20546f6b656e2067726160448201527f6e756c6172697479000000000000000000000000000000000000000000000000606482015290519081900360840190fd5b600160a060020a0385161515614917576040805160e560020a62461bcd02815260206004820152602c60248201527f41363a205472616e7366657220426c6f636b6564202d2052656365697665722060448201527f6e6f7420656c696769626c650000000000000000000000000000000000000000606482015290519081900360840190fd5b60075461492a908563ffffffff61528b16565b600755600160a060020a038516600090815260096020526040902054614956908563ffffffff61528b16565b600160a060020a038616600090815260096020526040812091909155614985908890889088888888600161529d565b84600160a060020a031686600160a060020a03167f4790eb24c76c5a304db5d1b4d9999370bcc2c8dca19d21a3bbe094ca35ecbf57868686604051808481526020018060200180602001838103835285818151815260200191508051906020019080838360008381101561466c578181015183820152602001614654565b801561180f57600160a060020a03831660009081526010602090815260408083208584529091529020541515614a5f57600160a060020a0383166000908152600f60209081526040822080546001810182559083529120018290555b600160a060020a0383166000908152601060209081526040808320858452909152902054614a93908263ffffffff61528b16565b600160a060020a0384166000908152601060209081526040808320868452825280832093909355600e905220541515614afc57600d80546001810182556000919091527fd7b6990105719101dabeb77144f2a3385c8033acd3af97e9423a695e81ad1eb5018290555b6000828152600e6020526040902054614b1b908263ffffffff61528b16565b6000838152600e6020526040902055505050565b600080826040516020018082805190602001908083835b60208310614b655780518252601f199092019160209182019101614b46565b51815160209384036101000a60001901801990921691161790526040805192909401828103601f190183528085528251928201929092207faabbb8ca000000000000000000000000000000000000000000000000000000008352600160a060020a038b16600484015260248301819052935193965073820b586c8c28125366c998641b09dcbe7d4cbf06955063aabbb8ca94506044808301949193509091829003018186803b158015614c1757600080fd5b505afa158015614c2b573d6000803e3d6000fd5b505050506040513d6020811015614c4157600080fd5b5051949350505050565b6006546000908290614c7390614c67838263ffffffff61550716565b9063ffffffff61552b16565b1492915050565b60208101516000906000199080821415614c9a5760408401519250614c9e565b8492505b505092915050565b6003805460010190819055614cba85614c4b565b1515614d36576040805160e560020a62461bcd02815260206004820152602860248201527f41393a205472616e7366657220426c6f636b6564202d20546f6b656e2067726160448201527f6e756c6172697479000000000000000000000000000000000000000000000000606482015290519081900360840190fd5b600160a060020a0386161515614dbc576040805160e560020a62461bcd02815260206004820152602c60248201527f41363a205472616e7366657220426c6f636b6564202d2052656365697665722060448201527f6e6f7420656c696769626c650000000000000000000000000000000000000000606482015290519081900360840190fd5b600160a060020a038716600090815260096020526040902054851115614e2e576040805160e560020a62461bcd02815260206004820152603260248201526000805160206157c98339815191526044820152600080516020615769833981519152606482015290519081900360840190fd5b614e3d898989898989896150a7565b600160a060020a038716600090815260096020526040902054614e66908663ffffffff61509216565b600160a060020a038089166000908152600960205260408082209390935590881681522054614e9b908663ffffffff61528b16565b600160a060020a038716600090815260096020526040902055614ec4898989898989898961529d565b85600160a060020a031687600160a060020a031689600160a060020a03167fe8f0a47da72ca43153c7a5693a827aa8456f52633de9870a736e5605bff4af6d888888604051808481526020018060200180602001838103835285818151815260200191508051906020019080838360005b83811015614f4d578181015183820152602001614f35565b50505050905090810190601f168015614f7a5780820380516001836020036101000a031916815260200191505b50838103825284518152845160209182019186019080838360005b83811015614fad578181015183820152602001614f95565b50505050905090810190601f168015614fda5780820380516001836020036101000a031916815260200191505b509550505050505060405180910390a4600354811461175357600080fd5b600160a060020a038116151561500d57600080fd5b6150178282613e6e565b1561502157600080fd5b600160a060020a0316600090815260209190915260409020805460ff19166001179055565b600160a060020a038116151561505b57600080fd5b6150658282613e6e565b151561507057600080fd5b600160a060020a0316600090815260209190915260409020805460ff19169055565b6000828211156150a157600080fd5b50900390565b60006150e8866040805190810160405280601281526020017f455243373737546f6b656e7353656e6465720000000000000000000000000000815250614b2f565b9050600160a060020a03811615612e0f5780600160a060020a0316637d25d7cd898989898989896040518863ffffffff1660e060020a0281526004018088815260200187600160a060020a0316600160a060020a0316815260200186600160a060020a0316600160a060020a0316815260200185600160a060020a0316600160a060020a031681526020018481526020018060200180602001838103835285818151815260200191508051906020019080838360005b838110156151b657818101518382015260200161519e565b50505050905090810190601f1680156151e35780820380516001836020036101000a031916815260200191505b50838103825284518152845160209182019186019080838360005b838110156152165781810151838201526020016151fe565b50505050905090810190601f1680156152435780820380516001836020036101000a031916815260200191505b509950505050505050505050600060405180830381600087803b15801561526957600080fd5b505af115801561527d573d6000803e3d6000fd5b505050505050505050505050565b600082820183811015611f1257600080fd5b60006152de866040805190810160405280601581526020017f455243373737546f6b656e73526563697069656e740000000000000000000000815250614b2f565b9050600160a060020a0381161561547c5780600160a060020a0316631551e6368a8a8a8a8a8a8a6040518863ffffffff1660e060020a0281526004018088815260200187600160a060020a0316600160a060020a0316815260200186600160a060020a0316600160a060020a0316815260200185600160a060020a0316600160a060020a031681526020018481526020018060200180602001838103835285818151815260200191508051906020019080838360005b838110156153ac578181015183820152602001615394565b50505050905090810190601f1680156153d95780820380516001836020036101000a031916815260200191505b50838103825284518152845160209182019186019080838360005b8381101561540c5781810151838201526020016153f4565b50505050905090810190601f1680156154395780820380516001836020036101000a031916815260200191505b509950505050505050505050600060405180830381600087803b15801561545f57600080fd5b505af1158015615473573d6000803e3d6000fd5b50505050611753565b81156117535761548b86615556565b1515611753576040805160e560020a62461bcd02815260206004820152602c60248201527f41363a205472616e7366657220426c6f636b6564202d2052656365697665722060448201527f6e6f7420656c696769626c650000000000000000000000000000000000000000606482015290519081900360840190fd5b600080821161551557600080fd5b6000828481151561552257fe5b04949350505050565b600082151561553c5750600061198b565b82820282848281151561554b57fe5b0414611f1257600080fd5b6000600160a060020a038216151561557057506000611d34565b503b1590565b828054600181600116156101000203166002900490600052602060002090601f016020900481019282601f106155b757805160ff19168380011785556155e4565b828001600101855582156155e4579182015b828111156155e45782518255916020019190600101906155c9565b506155f09291506156bd565b5090565b8280548282559060005260206000209081019282156155e4579160200282015b828111156155e4578235825591602001919060010190615614565b828054828255906000526020600020908101928215615691579160200282015b82811115615691578251825473ffffffffffffffffffffffffffffffffffffffff1916600160a060020a0390911617825560209092019160019091019061564f565b506155f09291506156d7565b81548183558181111561180f5760008381526020902061180f9181019083015b61150c91905b808211156155f057600081556001016156c3565b61150c91905b808211156155f057805473ffffffffffffffffffffffffffffffffffffffff191681556001016156dd56fe7472696374696f6e00000000000000000000000000000000000000000000000041383a205472616e7366657220426c6f636b6564202d20546f6b656e207265737265737472696374696f6e0000000000000000000000000000000000000000006c616e636520696e73756666696369656e74000000000000000000000000000041333a205472616e7366657220426c6f636b6564202d2053656e646572206c6f636b757020706572696f64206e6f7420656e646564000000000000000000000041343a205472616e7366657220426c6f636b6564202d2053656e646572206261e20314ef67750397f75c06a974fa978eaf8f26660fa2e4c14078f87ed2f9e8d741373a205472616e7366657220426c6f636b6564202d204964656e7469747920a165627a7a72305820e1430a0f7b8f55a8dff74e1c7f259c9a3a9813739f03914533c6d3451b38fb9b0029",
  "source": "\npragma solidity >=0.5.0;\n\nimport \"../node_modules/openzeppelin-solidity/contracts/access/roles/MinterRole.sol\";\nimport \"./IERC1400.sol\";\nimport \"./token/ERC1410/ERC1410.sol\";\n\n\n/**\n * @title ERC1400\n * @dev ERC1400 logic\n */\ncontract ERC1400 is IERC1400, ERC1410, MinterRole {\n\n  struct Doc {\n    string docURI;\n    bytes32 docHash;\n  }\n\n  // Mapping for token URIs.\n  mapping(bytes32 => Doc) internal _documents;\n\n  // Indicate whether the token can still be issued by the issuer or not anymore.\n  bool internal _isIssuable;\n\n  /**\n   * @dev Modifier to verify if token is issuable.\n   */\n  modifier issuableToken() {\n    require(_isIssuable, \"A8, Transfer Blocked - Token restriction\");\n    _;\n  }\n\n  /**\n   * [ERC1400 CONSTRUCTOR]\n   * @dev Initialize ERC1400 + register\n   * the contract implementation in ERC820Registry.\n   * @param name Name of the token.\n   * @param symbol Symbol of the token.\n   * @param granularity Granularity of the token.\n   * @param controllers Array of initial controllers.\n   * @param certificateSigner Address of the off-chain service which signs the\n   * conditional ownership certificates required for token transfers, issuance,\n   * redemption (Cf. CertificateController.sol).\n   */\n  constructor(\n    string memory name,\n    string memory symbol,\n    uint256 granularity,\n    address[]memory controllers,\n    address certificateSigner,\n    bytes32[]memory tokenDefaultPartitions\n  )\n    public\n    ERC1410(name, symbol, granularity, controllers, certificateSigner, tokenDefaultPartitions)\n  {\n    setInterfaceImplementation(\"ERC1400Token\",address(this));\n    _isControllable = true;\n    _isIssuable = true;\n  }\n\n  /********************** ERC1400 EXTERNAL FUNCTIONS **************************/\n\n  /**\n   * [ERC1400 INTERFACE (1/9)]\n   * @dev Access a document associated with the token.\n   * @param name Short name (represented as a bytes32) associated to the document.\n   * @return Requested document + document hash.\n   */\n  function getDocument(bytes32 name) external view returns (string memory, bytes32) {\n    require(bytes(_documents[name].docURI).length != 0, \"Action Blocked - Empty document\");\n    return (\n      _documents[name].docURI,\n      _documents[name].docHash\n    );\n  }\n\n  /**\n   * [ERC1400 INTERFACE (2/9)]\n   * @dev Associate a document with the token.\n   * @param name Short name (represented as a bytes32) associated to the document.\n   * @param uri Document content.\n   * @param documentHash Hash of the document [optional parameter].\n   */\n  function setDocument(bytes32 name, string calldata uri, bytes32 documentHash) external onlyOwner {\n    _documents[name] = Doc({\n      docURI: uri,\n      docHash: documentHash\n    });\n    emit Document(name, uri, documentHash);\n  }\n\n  /**\n   * [ERC1400 INTERFACE (3/9)]\n   * @dev Know if the token can be controlled by operators.\n   * If a token returns 'false' for 'isControllable()'' then it MUST always return 'false' in the future.\n   * @return bool 'true' if the token can still be controlled by operators, 'false' if it can't anymore.\n   */\n  function isControllable() external view returns (bool) {\n    return _isControllable;\n  }\n\n  /**\n   * [ERC1400 INTERFACE (4/9)]\n   * @dev Know if new tokens can be issued in the future.\n   * @return bool 'true' if tokens can still be issued by the issuer, 'false' if they can't anymore.\n   */\n  function isIssuable() external view returns (bool) {\n    return _isIssuable;\n  }\n\n  /**\n   * [ERC1400 INTERFACE (5/9)]\n   * @dev Issue tokens from a specific partition.\n   * @param partition Name of the partition.\n   * @param tokenHolder Address for which we want to issue tokens.\n   * @param value Number of tokens issued.\n   * @param data Information attached to the issuance, by the issuer. [CONTAINS THE CONDITIONAL OWNERSHIP CERTIFICATE]\n   */\n  function issueByPartition(bytes32 partition, address tokenHolder, uint256 value, bytes calldata data)\n    external\n    onlyMinter\n    issuableToken\n    isValidCertificate(data)\n  {\n    _issueByPartition(partition, msg.sender, tokenHolder, value, data, \"\");\n  }\n\n  /**\n   * [ERC1400 INTERFACE (6/9)]\n   * @dev Redeem tokens of a specific partition.\n   * @param partition Name of the partition.\n   * @param value Number of tokens redeemed.\n   * @param data Information attached to the redemption, by the redeemer. [CONTAINS THE CONDITIONAL OWNERSHIP CERTIFICATE]\n   */\n  function redeemByPartition(bytes32 partition, uint256 value, bytes calldata  data)\n    external\n    isValidCertificate(data)\n  {\n    _redeemByPartition(partition, msg.sender, msg.sender, value, data, \"\");\n  }\n\n  /**\n   * [ERC1400 INTERFACE (7/9)]\n   * @dev Redeem tokens of a specific partition.\n   * @param partition Name of the partition.\n   * @param tokenHolder Address for which we want to redeem tokens.\n   * @param value Number of tokens redeemed.\n   * @param data Information attached to the redemption.\n   * @param operatorData Information attached to the redemption, by the operator. [CONTAINS THE CONDITIONAL OWNERSHIP CERTIFICATE]\n   */\n  function operatorRedeemByPartition(bytes32 partition, address tokenHolder, uint256 value, bytes calldata data, bytes calldata operatorData)\n    external\n    isValidCertificate(operatorData)\n  {\n    address _from = (tokenHolder == address(0)) ? msg.sender : tokenHolder;\n    require(_isOperatorForPartition(partition, msg.sender, _from), \"A7: Transfer Blocked - Identity restriction\");\n\n    _redeemByPartition(partition, msg.sender, _from, value, data, operatorData);\n  }\n\n  /**\n   * [ERC1400 INTERFACE (8/9)]\n   * @dev Know the reason on success or failure based on the EIP-1066 application-specific status codes.\n   * @param partition Name of the partition.\n   * @param to Token recipient.\n   * @param value Number of tokens to transfer.\n   * @param data Information attached to the transfer, by the token holder. [CONTAINS THE CONDITIONAL OWNERSHIP CERTIFICATE]\n   * @return ESC (Ethereum Status Code) following the EIP-1066 standard.\n   * @return Additional bytes32 parameter that can be used to define\n   * application specific reason codes with additional details (for example the\n   * transfer restriction rule responsible for making the transfer operation invalid).\n   * @return Destination partition.\n   */\n  function canTransferByPartition(bytes32 partition, address to, uint256 value, bytes calldata data)\n    external\n    view\n    returns (byte, bytes32, bytes32)\n  {\n    if(!_checkCertificate(data, 0, 0xf3d490db)) { // 4 first bytes of keccak256(transferByPartition(bytes32,address,uint256,bytes))\n      return(hex\"A3\", \"\", partition); // Transfer Blocked - Sender lockup period not ended\n    } else {\n      return _canTransfer(partition, msg.sender, msg.sender, to, value, data, \"\");\n    }\n  }\n\n  /**\n   * [ERC1400 INTERFACE (9/9)]\n   * @dev Know the reason on success or failure based on the EIP-1066 application-specific status codes.\n   * @param partition Name of the partition.\n   * @param from Token holder.\n   * @param to Token recipient.\n   * @param value Number of tokens to transfer.\n   * @param data Information attached to the transfer. [CAN CONTAIN THE DESTINATION PARTITION]\n   * @param operatorData Information attached to the transfer, by the operator. [CONTAINS THE CONDITIONAL OWNERSHIP CERTIFICATE]\n   * @return ESC (Ethereum Status Code) following the EIP-1066 standard.\n   * @return Additional bytes32 parameter that can be used to define\n   * application specific reason codes with additional details (for example the\n   * transfer restriction rule responsible for making the transfer operation invalid).\n   * @return Destination partition.\n   */\n  function canOperatorTransferByPartition(bytes32 partition, address from, address to, uint256 value, bytes calldata data, bytes calldata operatorData)\n    external\n    view\n    returns (byte, bytes32, bytes32)\n  {\n    if(!_checkCertificate(operatorData, 0, 0x8c0dee9c)) { // 4 first bytes of keccak256(operatorTransferByPartition(bytes32,address,address,uint256,bytes,bytes))\n      return(hex\"A3\", \"\", partition); // Transfer Blocked - Sender lockup period not ended\n    } else {\n      address _from = (from == address(0)) ? msg.sender : from;\n      return _canTransfer(partition, msg.sender, _from, to, value, data, operatorData);\n    }\n  }\n\n  /********************** ERC1400 INTERNAL FUNCTIONS **************************/\n\n  /**\n   * [INTERNAL]\n   * @dev Know the reason on success or failure based on the EIP-1066 application-specific status codes.\n   * @param partition Name of the partition.\n   * @param operator The address performing the transfer.\n   * @param from Token holder.\n   * @param to Token recipient.\n   * @param value Number of tokens to transfer.\n   * @param data Information attached to the transfer. [CAN CONTAIN THE DESTINATION PARTITION]\n   * @param operatorData Information attached to the transfer, by the operator (if any).\n   * @return ESC (Ethereum Status Code) following the EIP-1066 standard.\n   * @return Additional bytes32 parameter that can be used to define\n   * application specific reason codes with additional details (for example the\n   * transfer restriction rule responsible for making the transfer operation invalid).\n   * @return Destination partition.\n   */\n   function _canTransfer(bytes32 partition, address operator, address from, address to, uint256 value, bytes memory data, bytes memory operatorData)\n     internal\n     view\n     returns (byte, bytes32, bytes32)\n   {\n     if(!_isOperatorForPartition(partition, operator, from))\n       return(hex\"A7\", \"\", partition); // \"Transfer Blocked - Identity restriction\"\n\n     if((_balances[from] < value) || (_balanceOfByPartition[from][partition] < value))\n       return(hex\"A4\", \"\", partition); // Transfer Blocked - Sender balance insufficient\n\n     if(to == address(0))\n       return(hex\"A6\", \"\", partition); // Transfer Blocked - Receiver not eligible\n\n     address senderImplementation;\n     address recipientImplementation;\n     senderImplementation = interfaceAddr(from, \"ERC777TokensSender\");\n     recipientImplementation = interfaceAddr(to, \"ERC777TokensRecipient\");\n\n     if((senderImplementation != address(0))\n       && !IERC777TokensSender(senderImplementation).canTransfer(partition, from, to, value, data, operatorData))\n       return(hex\"A5\", \"\", partition); // Transfer Blocked - Sender not eligible\n\n     if((recipientImplementation != address(0))\n       && !IERC777TokensRecipient(recipientImplementation).canReceive(partition, from, to, value, data, operatorData))\n       return(hex\"A6\", \"\", partition); // Transfer Blocked - Receiver not eligible\n\n     if(!_isMultiple(value))\n       return(hex\"A9\", \"\", partition); // Transfer Blocked - Token granularity\n\n     return(hex\"A2\", \"\", partition);  // Transfer Verified - Off-Chain approval for restricted token\n   }\n\n  /**\n   * [INTERNAL]\n   * @dev Issue tokens from a specific partition.\n   * @param toPartition Name of the partition.\n   * @param operator The address performing the issuance.\n   * @param to Token recipient.\n   * @param value Number of tokens to issue.\n   * @param data Information attached to the issuance.\n   * @param operatorData Information attached to the issuance, by the operator (if any).\n   */\n  function _issueByPartition(\n    bytes32 toPartition,\n    address operator,\n    address to,\n    uint256 value,\n    bytes memory data,\n    bytes memory operatorData\n  )\n    internal\n  {\n    _issue(toPartition, operator, to, value, data, operatorData);\n    _addTokenToPartition(to, toPartition, value);\n\n    emit IssuedByPartition(toPartition, operator, to, value, data, operatorData);\n  }\n\n  /**\n   * [INTERNAL]\n   * @dev Redeem tokens of a specific partition.\n   * @param fromPartition Name of the partition.\n   * @param operator The address performing the redemption.\n   * @param from Token holder whose tokens will be redeemed.\n   * @param value Number of tokens to redeem.\n   * @param data Information attached to the redemption.\n   * @param operatorData Information attached to the redemption, by the operator (if any).\n   */\n  function _redeemByPartition(\n    bytes32 fromPartition,\n    address operator,\n    address from,\n    uint256 value,\n    bytes memory data,\n    bytes memory operatorData\n  )\n    internal\n  {\n    require(_balanceOfByPartition[from][fromPartition] >= value, \"A4: Transfer Blocked - Sender balance insufficient\");\n\n    _removeTokenFromPartition(from, fromPartition, value);\n    _redeem(fromPartition, operator, from, value, data, operatorData);\n\n    emit RedeemedByPartition(fromPartition, operator, from, value, data, operatorData);\n  }\n\n  /********************** ERC1400 OPTIONAL FUNCTIONS **************************/\n\n  /**\n   * [NOT MANDATORY FOR ERC1400 STANDARD]\n   * @dev Definitely renounce the possibility to control tokens on behalf of tokenHolders.\n   * Once set to false, '_isControllable' can never be set to 'true' again.\n   */\n  function renounceControl() external onlyOwner {\n    _isControllable = false;\n  }\n\n  /**\n   * [NOT MANDATORY FOR ERC1400 STANDARD]\n   * @dev Definitely renounce the possibility to issue new tokens.\n   * Once set to false, '_isIssuable' can never be set to 'true' again.\n   */\n  function renounceIssuance() external onlyOwner {\n    _isIssuable = false;\n  }\n\n  /**\n   * [NOT MANDATORY FOR ERC1400 STANDARD]\n   * @dev Set list of token controllers.\n   * @param operators Controller addresses.\n   */\n  function setControllers(address[] calldata operators) external onlyOwner {\n    _setControllers(operators);\n  }\n\n  /**\n   * [NOT MANDATORY FOR ERC1400 STANDARD]\n   * @dev Set list of token partition controllers.\n   * @param partition Name of the partition.\n   * @param operators Controller addresses.\n   */\n   function setPartitionControllers(bytes32 partition, address[] calldata operators) external onlyOwner {\n     _setPartitionControllers(partition, operators);\n   }\n\n   /**\n   * @dev Add a certificate signer for the token.\n   * @param operator Address to set as a certificate signer.\n   * @param authorized 'true' if operator shall be accepted as certificate signer, 'false' if not.\n   */\n  function setCertificateSigner(address operator, bool authorized) external onlyOwner {\n    _setCertificateSigner(operator, authorized);\n  }\n\n  /************* ERC1410/ERC777 BACKWARDS RETROCOMPATIBILITY ******************/\n\n  /**\n   * [NOT MANDATORY FOR ERC1400 STANDARD]\n   * @dev Get token default partitions to send from.\n   * Function used for ERC777 and ERC20 backwards compatibility.\n   * For example, a security token may return the bytes32(\"unrestricted\").\n   * @return Default partitions.\n   */\n  function getTokenDefaultPartitions() external view returns (bytes32[]memory) {\n    return _tokenDefaultPartitions;\n  }\n\n  /**\n   * [NOT MANDATORY FOR ERC1400 STANDARD]\n   * @dev Set token default partitions to send from.\n   * Function used for ERC777 and ERC20 backwards compatibility.\n   * @param defaultPartitions Partitions to use by default when not specified.\n   */\n  function setTokenDefaultPartitions(bytes32[] calldata defaultPartitions) external  onlyOwner{\n    _tokenDefaultPartitions = defaultPartitions;\n  }\n\n\n  /**\n   * [NOT MANDATORY FOR ERC1400 STANDARD][OVERRIDES ERC1410 METHOD]\n   * @dev Redeem the value of tokens from the address 'msg.sender'.\n   * @param value Number of tokens to redeem.\n   * @param data Information attached to the redemption, by the token holder. [CONTAINS THE CONDITIONAL OWNERSHIP CERTIFICATE]\n   */\n  function redeem(uint256 value, bytes calldata data)\n    external\n    isValidCertificate(data)\n  {\n    _redeemByDefaultPartitions(msg.sender, msg.sender, value, data, \"\");\n  }\n\n  /**\n   * [NOT MANDATORY FOR ERC1400 STANDARD][OVERRIDES ERC1410 METHOD]\n   * @dev Redeem the value of tokens on behalf of the address 'from'.\n   * @param from Token holder whose tokens will be redeemed (or 'address(0)' to set from to 'msg.sender').\n   * @param value Number of tokens to redeem.\n   * @param data Information attached to the redemption.\n   * @param operatorData Information attached to the redemption, by the operator. [CONTAINS THE CONDITIONAL OWNERSHIP CERTIFICATE]\n   */\n  function redeemFrom(address from, uint256 value, bytes calldata data, bytes calldata operatorData)\n    external\n    isValidCertificate(operatorData)\n  {\n    address _from = (from == address(0)) ? msg.sender : from;\n\n    require(_isOperatorFor(msg.sender, _from), \"A7: Transfer Blocked - Identity restriction\");\n\n    _redeemByDefaultPartitions(msg.sender, _from, value, data, operatorData);\n  }\n\n  /**\n  * [NOT MANDATORY FOR ERC1410 STANDARD]\n   * @dev Redeem tokens from a default partitions.\n   * @param operator The address performing the redeem.\n   * @param from Token holder.\n   * @param value Number of tokens to redeem.\n   * @param data Information attached to the redemption.\n   * @param operatorData Information attached to the redemption, by the operator (if any).\n   */\n  function _redeemByDefaultPartitions(\n    address operator,\n    address from,\n    uint256 value,\n    bytes memory data,\n    bytes memory operatorData\n  )\n    internal\n  {\n    bytes32[] memory _partitions = _getDefaultPartitions(from);\n    require(_partitions.length != 0, \"A8: Transfer Blocked - Token restriction\");\n\n    uint256 _remainingValue = value;\n    uint256 _localBalance;\n\n    for (uint i = 0; i < _partitions.length; i++) {\n      _localBalance = _balanceOfByPartition[from][_partitions[i]];\n      if(_remainingValue <= _localBalance) {\n        _redeemByPartition(_partitions[i], operator, from, _remainingValue, data, operatorData);\n        _remainingValue = 0;\n        break;\n      } else {\n        _redeemByPartition(_partitions[i], operator, from, _localBalance, data, operatorData);\n        _remainingValue = _remainingValue - _localBalance;\n      }\n    }\n\n    require(_remainingValue == 0, \"A8: Transfer Blocked - Token restriction\");\n  }\n\n}\n\n\n",
  "sourcePath": "/home/moez/ERC1400F/contracts/ERC1400.sol",
  "compiler": {
    "name": "solc",
    "version": "0.5.0+commit.1d4f565a.Emscripten.clang"
  },
  "schemaVersion": "3.0.9",
  "updatedAt": "2019-05-28T14:57:14.057Z",
  "devdoc": {
    "details": "ERC1400 logic",
    "methods": {
      "authorizeOperator(address)": {
        "details": "Set a third party operator address as an operator of 'msg.sender' to transfer and redeem tokens on its behalf.",
        "params": {
          "operator": "Address to set as an operator for 'msg.sender'."
        }
      },
      "authorizeOperatorByPartition(bytes32,address)": {
        "details": "Set 'operator' as an operator for 'msg.sender' for a given partition.",
        "params": {
          "operator": "Address to set as an operator for 'msg.sender'.",
          "partition": "Name of the partition."
        }
      },
      "balanceOf(address)": {
        "details": "Get the balance of the account with address 'tokenHolder'.",
        "params": {
          "tokenHolder": "Address for which the balance is returned."
        },
        "return": "Amount of token held by 'tokenHolder' in the token contract."
      },
      "balanceOfByPartition(bytes32,address)": {
        "details": "Get balance of a tokenholder for a specific partition.",
        "params": {
          "partition": "Name of the partition.",
          "tokenHolder": "Address for which the balance is returned."
        },
        "return": "Amount of token of partition 'partition' held by 'tokenHolder' in the token contract."
      },
      "canOperatorTransferByPartition(bytes32,address,address,uint256,bytes,bytes)": {
        "details": "Know the reason on success or failure based on the EIP-1066 application-specific status codes.",
        "params": {
          "data": "Information attached to the transfer. [CAN CONTAIN THE DESTINATION PARTITION]",
          "from": "Token holder.",
          "operatorData": "Information attached to the transfer, by the operator. [CONTAINS THE CONDITIONAL OWNERSHIP CERTIFICATE]",
          "partition": "Name of the partition.",
          "to": "Token recipient.",
          "value": "Number of tokens to transfer."
        },
        "return": "ESC (Ethereum Status Code) following the EIP-1066 standard.Additional bytes32 parameter that can be used to define application specific reason codes with additional details (for example the transfer restriction rule responsible for making the transfer operation invalid).Destination partition."
      },
      "canTransferByPartition(bytes32,address,uint256,bytes)": {
        "details": "Know the reason on success or failure based on the EIP-1066 application-specific status codes.",
        "params": {
          "data": "Information attached to the transfer, by the token holder. [CONTAINS THE CONDITIONAL OWNERSHIP CERTIFICATE]",
          "partition": "Name of the partition.",
          "to": "Token recipient.",
          "value": "Number of tokens to transfer."
        },
        "return": "ESC (Ethereum Status Code) following the EIP-1066 standard.Additional bytes32 parameter that can be used to define application specific reason codes with additional details (for example the transfer restriction rule responsible for making the transfer operation invalid).Destination partition."
      },
      "certificateSigners(address)": {
        "details": "Get certificate signer authorization for an operator.",
        "params": {
          "operator": "Address whom to check the certificate signer authorization for."
        },
        "return": "bool 'true' if operator is authorized as certificate signer, 'false' if not."
      },
      "checkCount(address)": {
        "details": "Get number of transations already sent to this contract by the sender",
        "params": {
          "sender": "Address whom to check the counter of."
        },
        "return": "uint256 Number of transaction already sent to this contract."
      },
      "constructor": {
        "details": "Initialize ERC1400 + register the contract implementation in ERC820Registry.",
        "params": {
          "certificateSigner": "Address of the off-chain service which signs the conditional ownership certificates required for token transfers, issuance, redemption (Cf. CertificateController.sol).",
          "controllers": "Array of initial controllers.",
          "granularity": "Granularity of the token.",
          "name": "Name of the token.",
          "symbol": "Symbol of the token."
        }
      },
      "controllers()": {
        "details": "Get the list of controllers as defined by the token contract.",
        "return": "List of addresses of all the controllers."
      },
      "controllersByPartition(bytes32)": {
        "details": "Get controllers for a given partition. Function used for ERC777 and ERC20 backwards compatibility.",
        "params": {
          "partition": "Name of the partition."
        },
        "return": "Array of controllers for partition."
      },
      "getDefaultPartitions(address)": {
        "details": "Get default partitions to transfer from. Function used for ERC777 and ERC20 backwards compatibility. For example, a security token may return the bytes32(\"unrestricted\").",
        "params": {
          "tokenHolder": "Address for which we want to know the default partitions."
        },
        "return": "Array of default partitions."
      },
      "getDocument(bytes32)": {
        "details": "Access a document associated with the token.",
        "params": {
          "name": "Short name (represented as a bytes32) associated to the document."
        },
        "return": "Requested document + document hash."
      },
      "getTokenDefaultPartitions()": {
        "details": "Get token default partitions to send from. Function used for ERC777 and ERC20 backwards compatibility. For example, a security token may return the bytes32(\"unrestricted\").",
        "return": "Default partitions."
      },
      "granularity()": {
        "details": "Get the smallest part of the token thats not divisible.",
        "return": "The smallest non-divisible part of the token."
      },
      "isControllable()": {
        "details": "Know if the token can be controlled by operators. If a token returns 'false' for 'isControllable()'' then it MUST always return 'false' in the future.",
        "return": "bool 'true' if the token can still be controlled by operators, 'false' if it can't anymore."
      },
      "isIssuable()": {
        "details": "Know if new tokens can be issued in the future.",
        "return": "bool 'true' if tokens can still be issued by the issuer, 'false' if they can't anymore."
      },
      "isOperatorFor(address,address)": {
        "details": "Indicate whether the operator address is an operator of the tokenHolder address.",
        "params": {
          "operator": "Address which may be an operator of tokenHolder.",
          "tokenHolder": "Address of a token holder which may have the operator address as an operator."
        },
        "return": "'true' if operator is an operator of 'tokenHolder' and 'false' otherwise."
      },
      "isOperatorForPartition(bytes32,address,address)": {
        "details": "Indicate whether the operator address is an operator of the tokenHolder address for the given partition.",
        "params": {
          "operator": "Address which may be an operator of tokenHolder for the given partition.",
          "partition": "Name of the partition.",
          "tokenHolder": "Address of a token holder which may have the operator address as an operator for the given partition."
        },
        "return": "'true' if 'operator' is an operator of 'tokenHolder' for partition 'partition' and 'false' otherwise."
      },
      "isOwner()": {
        "return": "true if `msg.sender` is the owner of the contract."
      },
      "issueByPartition(bytes32,address,uint256,bytes)": {
        "details": "Issue tokens from a specific partition.",
        "params": {
          "data": "Information attached to the issuance, by the issuer. [CONTAINS THE CONDITIONAL OWNERSHIP CERTIFICATE]",
          "partition": "Name of the partition.",
          "tokenHolder": "Address for which we want to issue tokens.",
          "value": "Number of tokens issued."
        }
      },
      "name()": {
        "details": "Get the name of the token, e.g., \"MyToken\".",
        "return": "Name of the token."
      },
      "operatorRedeemByPartition(bytes32,address,uint256,bytes,bytes)": {
        "details": "Redeem tokens of a specific partition.",
        "params": {
          "data": "Information attached to the redemption.",
          "operatorData": "Information attached to the redemption, by the operator. [CONTAINS THE CONDITIONAL OWNERSHIP CERTIFICATE]",
          "partition": "Name of the partition.",
          "tokenHolder": "Address for which we want to redeem tokens.",
          "value": "Number of tokens redeemed."
        }
      },
      "operatorTransferByPartition(bytes32,address,address,uint256,bytes,bytes)": {
        "details": "Transfer tokens from a specific partition through an operator.",
        "params": {
          "data": "Information attached to the transfer. [CAN CONTAIN THE DESTINATION PARTITION]",
          "from": "Token holder.",
          "operatorData": "Information attached to the transfer, by the operator. [CONTAINS THE CONDITIONAL OWNERSHIP CERTIFICATE]",
          "partition": "Name of the partition.",
          "to": "Token recipient.",
          "value": "Number of tokens to transfer."
        },
        "return": "Destination partition."
      },
      "owner()": {
        "return": "the address of the owner."
      },
      "partitionsOf(address)": {
        "details": "Get partitions index of a tokenholder.",
        "params": {
          "tokenHolder": "Address for which the partitions index are returned."
        },
        "return": "Array of partitions index of 'tokenHolder'."
      },
      "redeem(uint256,bytes)": {
        "details": "Redeem the value of tokens from the address 'msg.sender'.",
        "params": {
          "data": "Information attached to the redemption, by the token holder. [CONTAINS THE CONDITIONAL OWNERSHIP CERTIFICATE]",
          "value": "Number of tokens to redeem."
        }
      },
      "redeemByPartition(bytes32,uint256,bytes)": {
        "details": "Redeem tokens of a specific partition.",
        "params": {
          "data": "Information attached to the redemption, by the redeemer. [CONTAINS THE CONDITIONAL OWNERSHIP CERTIFICATE]",
          "partition": "Name of the partition.",
          "value": "Number of tokens redeemed."
        }
      },
      "redeemFrom(address,uint256,bytes,bytes)": {
        "details": "Redeem the value of tokens on behalf of the address 'from'.",
        "params": {
          "data": "Information attached to the redemption.",
          "from": "Token holder whose tokens will be redeemed (or 'address(0)' to set from to 'msg.sender').",
          "operatorData": "Information attached to the redemption, by the operator. [CONTAINS THE CONDITIONAL OWNERSHIP CERTIFICATE]",
          "value": "Number of tokens to redeem."
        }
      },
      "renounceControl()": {
        "details": "Definitely renounce the possibility to control tokens on behalf of tokenHolders. Once set to false, '_isControllable' can never be set to 'true' again."
      },
      "renounceIssuance()": {
        "details": "Definitely renounce the possibility to issue new tokens. Once set to false, '_isIssuable' can never be set to 'true' again."
      },
      "renounceOwnership()": {
        "details": "Allows the current owner to relinquish control of the contract. It will not be possible to call the functions with the `onlyOwner` modifier anymore."
      },
      "revokeOperator(address)": {
        "details": "Remove the right of the operator address to be an operator for 'msg.sender' and to transfer and redeem tokens on its behalf.",
        "params": {
          "operator": "Address to rescind as an operator for 'msg.sender'."
        }
      },
      "revokeOperatorByPartition(bytes32,address)": {
        "details": "Remove the right of the operator address to be an operator on a given partition for 'msg.sender' and to transfer and redeem tokens on its behalf.",
        "params": {
          "operator": "Address to rescind as an operator on given partition for 'msg.sender'.",
          "partition": "Name of the partition."
        }
      },
      "setCertificateSigner(address,bool)": {
        "details": "Add a certificate signer for the token.",
        "params": {
          "authorized": "'true' if operator shall be accepted as certificate signer, 'false' if not.",
          "operator": "Address to set as a certificate signer."
        }
      },
      "setControllers(address[])": {
        "details": "Set list of token controllers.",
        "params": {
          "operators": "Controller addresses."
        }
      },
      "setDefaultPartitions(bytes32[])": {
        "details": "Set default partitions to transfer from. Function used for ERC777 and ERC20 backwards compatibility.",
        "params": {
          "partitions": "partitions to use by default when not specified."
        }
      },
      "setDocument(bytes32,string,bytes32)": {
        "details": "Associate a document with the token.",
        "params": {
          "documentHash": "Hash of the document [optional parameter].",
          "name": "Short name (represented as a bytes32) associated to the document.",
          "uri": "Document content."
        }
      },
      "setPartitionControllers(bytes32,address[])": {
        "details": "Set list of token partition controllers.",
        "params": {
          "operators": "Controller addresses.",
          "partition": "Name of the partition."
        }
      },
      "setTokenDefaultPartitions(bytes32[])": {
        "details": "Set token default partitions to send from. Function used for ERC777 and ERC20 backwards compatibility.",
        "params": {
          "defaultPartitions": "Partitions to use by default when not specified."
        }
      },
      "symbol()": {
        "details": "Get the symbol of the token, e.g., \"MYT\".",
        "return": "Symbol of the token."
      },
      "totalPartitions()": {
        "details": "Get list of existing partitions.",
        "return": "Array of all exisiting partitions."
      },
      "totalSupply()": {
        "details": "Get the total number of issued tokens.",
        "return": "Total supply of tokens currently in circulation."
      },
      "transferByPartition(bytes32,address,uint256,bytes)": {
        "details": "Transfer tokens from a specific partition.",
        "params": {
          "data": "Information attached to the transfer, by the token holder. [CONTAINS THE CONDITIONAL OWNERSHIP CERTIFICATE]",
          "partition": "Name of the partition.",
          "to": "Token recipient.",
          "value": "Number of tokens to transfer."
        },
        "return": "Destination partition."
      },
      "transferFromWithData(address,address,uint256,bytes,bytes)": {
        "details": "Transfer the value of tokens on behalf of the address from to the address to.",
        "params": {
          "data": "Information attached to the transfer, and intended for the token holder ('from'). [CAN CONTAIN THE DESTINATION PARTITION]",
          "from": "Token holder (or 'address(0)'' to set from to 'msg.sender').",
          "operatorData": "Information attached to the transfer by the operator. [CONTAINS THE CONDITIONAL OWNERSHIP CERTIFICATE]",
          "to": "Token recipient.",
          "value": "Number of tokens to transfer."
        }
      },
      "transferOwnership(address)": {
        "details": "Allows the current owner to transfer control of the contract to a newOwner.",
        "params": {
          "newOwner": "The address to transfer ownership to."
        }
      },
      "transferWithData(address,uint256,bytes)": {
        "details": "Transfer the value of tokens from the address 'msg.sender' to the address 'to'.",
        "params": {
          "data": "Information attached to the transfer, by the token holder. [CONTAINS THE CONDITIONAL OWNERSHIP CERTIFICATE]",
          "to": "Token recipient.",
          "value": "Number of tokens to transfer."
        }
      }
    },
    "title": "ERC1400"
  },
  "userdoc": {
    "methods": {
      "authorizeOperator(address)": {
        "notice": "[ERC777 INTERFACE (7/13)]"
      },
      "authorizeOperatorByPartition(bytes32,address)": {
        "notice": "[ERC1410 INTERFACE (8/10)]"
      },
      "balanceOf(address)": {
        "notice": "[ERC777 INTERFACE (4/13)]"
      },
      "balanceOfByPartition(bytes32,address)": {
        "notice": "[ERC1410 INTERFACE (1/10)]"
      },
      "canOperatorTransferByPartition(bytes32,address,address,uint256,bytes,bytes)": {
        "notice": "[ERC1400 INTERFACE (9/9)]"
      },
      "canTransferByPartition(bytes32,address,uint256,bytes)": {
        "notice": "[ERC1400 INTERFACE (8/9)]"
      },
      "constructor": "[ERC1400 CONSTRUCTOR]",
      "controllers()": {
        "notice": "[ERC777 INTERFACE (6/13)]"
      },
      "controllersByPartition(bytes32)": {
        "notice": "[ERC1410 INTERFACE (7/10)]"
      },
      "getDefaultPartitions(address)": {
        "notice": "[ERC1410 INTERFACE (5/10)]"
      },
      "getDocument(bytes32)": {
        "notice": "[ERC1400 INTERFACE (1/9)]"
      },
      "getTokenDefaultPartitions()": {
        "notice": "[NOT MANDATORY FOR ERC1400 STANDARD]"
      },
      "granularity()": {
        "notice": "[ERC777 INTERFACE (5/13)]"
      },
      "isControllable()": {
        "notice": "[ERC1400 INTERFACE (3/9)]"
      },
      "isIssuable()": {
        "notice": "[ERC1400 INTERFACE (4/9)]"
      },
      "isOperatorFor(address,address)": {
        "notice": "[ERC777 INTERFACE (9/13)]"
      },
      "isOperatorForPartition(bytes32,address,address)": {
        "notice": "[ERC1410 INTERFACE (10/10)]"
      },
      "issueByPartition(bytes32,address,uint256,bytes)": {
        "notice": "[ERC1400 INTERFACE (5/9)]"
      },
      "name()": {
        "notice": "[ERC777 INTERFACE (1/13)]"
      },
      "operatorRedeemByPartition(bytes32,address,uint256,bytes,bytes)": {
        "notice": "[ERC1400 INTERFACE (7/9)]"
      },
      "operatorTransferByPartition(bytes32,address,address,uint256,bytes,bytes)": {
        "notice": "[ERC1410 INTERFACE (4/10)]"
      },
      "partitionsOf(address)": {
        "notice": "[ERC1410 INTERFACE (2/10)]"
      },
      "redeem(uint256,bytes)": {
        "notice": "[NOT MANDATORY FOR ERC1400 STANDARD][OVERRIDES ERC1410 METHOD]"
      },
      "redeemByPartition(bytes32,uint256,bytes)": {
        "notice": "[ERC1400 INTERFACE (6/9)]"
      },
      "redeemFrom(address,uint256,bytes,bytes)": {
        "notice": "[NOT MANDATORY FOR ERC1400 STANDARD][OVERRIDES ERC1410 METHOD]"
      },
      "renounceControl()": {
        "notice": "[NOT MANDATORY FOR ERC1400 STANDARD]"
      },
      "renounceIssuance()": {
        "notice": "[NOT MANDATORY FOR ERC1400 STANDARD]"
      },
      "renounceOwnership()": {
        "notice": "Renouncing ownership will leave the contract without an owner, thereby removing any functionality that is only available to the owner."
      },
      "revokeOperator(address)": {
        "notice": "[ERC777 INTERFACE (8/13)]"
      },
      "revokeOperatorByPartition(bytes32,address)": {
        "notice": "[ERC1410 INTERFACE (9/10)]"
      },
      "setControllers(address[])": {
        "notice": "[NOT MANDATORY FOR ERC1400 STANDARD]"
      },
      "setDefaultPartitions(bytes32[])": {
        "notice": "[ERC1410 INTERFACE (6/10)]"
      },
      "setDocument(bytes32,string,bytes32)": {
        "notice": "[ERC1400 INTERFACE (2/9)]"
      },
      "setPartitionControllers(bytes32,address[])": {
        "notice": "[NOT MANDATORY FOR ERC1400 STANDARD]"
      },
      "setTokenDefaultPartitions(bytes32[])": {
        "notice": "[NOT MANDATORY FOR ERC1400 STANDARD]"
      },
      "symbol()": {
        "notice": "[ERC777 INTERFACE (2/13)]"
      },
      "totalPartitions()": {
        "notice": "[NOT MANDATORY FOR ERC1410 STANDARD]"
      },
      "totalSupply()": {
        "notice": "[ERC777 INTERFACE (3/13)]"
      },
      "transferByPartition(bytes32,address,uint256,bytes)": {
        "notice": "[ERC1410 INTERFACE (3/10)]"
      },
      "transferFromWithData(address,address,uint256,bytes,bytes)": {
        "notice": "[NOT MANDATORY FOR ERC1410 STANDARD][OVERRIDES ERC777 METHOD]"
      },
      "transferWithData(address,uint256,bytes)": {
        "notice": "[NOT MANDATORY FOR ERC1410 STANDARD][OVERRIDES ERC777 METHOD]"
      }
    }
  }
}